:020000040800F2
:10000000806F0020AD020008A9BF0008D54200089B
:10001000795400083D1900085DDD0008000000006B
:100020000000000000000000000000006DC6000895
:10003000412A0008000000002DC30008D5CE0008AA
:10004000C7020008C7020008C7020008C70200086C
:10005000C7020008C7020008C7020008C70200085C
:10006000C7020008C7020008C7020008C70200084C
:10007000C7020008C7020008C7020008C70200083C
:10008000C7020008C7020008C7020008C70200082C
:10009000C7020008C7020008C7020008C70200081C
:1000A000C7020008C7020008C7020008C70200080C
:1000B00099CF000805D3000835D30008C70200080F
:1000C000C7020008C7020008C7020008C7020008EC
:1000D000C7020008C7020008C7020008C7020008DC
:1000E000C7020008C7020008C7020008C7020008CC
:1000F000C7020008C7020008C7020008C7020008BC
:10010000C7020008C7020008C1D60008C7020008DD
:10011000C7020008C7020008C7020008C70200089B
:100120004D270008C7020008C7020008C7020008E0
:10013000C7020008C7020008C7020008C70200087B
:10014000C7020008C7020008C7020008C70200086B
:10015000C7020008C7020008C7020008C70200085B
:10016000C7020008C7020008C7020008C70200084B
:10017000C7020008C7020008C7020008000000000C
:10018000C7020008C702000800F002F800F07FF87C
:100190000AA090E8000C82448344AAF10107DA45E2
:1001A00001D100F074F8AFF2090EBAE80F0013F0B5
:1001B000010F18BFFB1A43F001031847D4350100A3
:1001C000F43501000A4410F8013B13F0030408BFA2
:1001D00010F8014B1D1108BF10F8015B641E05D01B
:1001E00010F8016B641E01F8016BF9D1002D15D0D8
:1001F00010F8014B03F00C030C2BA1EB04040ABF15
:1002000010F8013BA4EB8314A4EB032405F10103D4
:1002100014F8016B5B1E01F8016BF9D5914238BFF0
:1002200010F8013BD1D3704700230024002500269D
:10023000103A28BF78C1FBD8520728BF30C148BF49
:100240000B607047662911F00080642900F0488136
:10025000752900F04581632900F03186732900F08B
:100260003686002070471FB510F0DDFF00F078FEE5
:1002700004000020002110F087FA401C606000207C
:10028000002110F06BFAE0601FBD10B510BD00F04A
:10029000B3FF1146FFF7E7FF0DF062FF00F0DFFF4D
:1002A00003B4FFF7F2FF03BC00F0E2FF0948804708
:1002B00009480047FEE7FEE7FEE7FEE7FEE7FEE748
:1002C000FEE7FEE7FEE7FEE704480549054A064B60
:1002D0007047000085CF0008890100088069002070
:1002E000806F0020806B0020806B002053EA020C9E
:1002F00000F069802DE9F04B4FF00006002B1FBF86
:10030000B3FA83F503FA05F424FA05F65E4012BF4A
:100310001643B2FA82F502FA05F4C5F120051EBFB4
:1003200022FA05FC44EA0C04203556EA044C4FEA54
:10033000144418BF641C4FF000084FF000099042AD
:1003400071EB030C39D3002919BFB1FA81F701FA17
:1003500007F6B0FA80F700FA07F6C7F120071EBFCC
:1003600020FA07FC46EA0C062037B6FBF4FCA7EBA4
:100370000507103F07F01F0BCBF120062CFA06F6FD
:100380000CFA0BFB44BFB3460026202FA4BF5E46E9
:100390004FF0000B5BEA060C08BF4FF0010B19EBA6
:1003A0000B0948EB0608ABFB027C06FB02CC0BFBFF
:1003B00003CCC01B71EB0C01C1E70B460246414662
:1003C0004846BDE8F08B13B5084318BF4FF0FF3027
:1003D0000146AFF30080BDE81C4070470FB41CB568
:1003E000084B06AA7B4469460090059800F03DFD45
:1003F00004460020694600F04BFD20461CBC5DF819
:1004000014FB0000A90A00000FB47CB50C0009AA77
:10041000009001D02044401E084B7B446946019067
:10042000089800F022FD05461CB10020694600F046
:100430002FFD28467CBC5DF814FB00007D0A0000FF
:1004400070B5044685690068C10601D5302600E014
:100450002026C00707D070BDD4E90121304690475F
:10046000206A401C20626D1EF6D570BD70B5044632
:1004700085690078C00707D170BDD4E9012120202B
:100480009047206A401C20626D1EF6D570BD70B585
:100490000C460546012A05D02878800600D5EA6971
:1004A000002302E0012305E05B1C934202D2E05CE2
:1004B0000028F9D1A869E618C01AA861286A18446A
:1004C00028622846FFF7BCFF04E0D5E9012114F8B3
:1004D000010B9047B442F8D32846FFF7C7FF70BD21
:1004E0002DE9F0410646002410687529314616A50D
:1004F00010D0AFF30080002802DA404213A507E0D5
:1005000031688A0701D512A502E0490704D511A573
:10051000012401E0AFF3008000210A2206F1240744
:1005200009E0B0FBF2FCB0FBF2F302FB1C00303040
:1005300078541846491C0028F3D123462A463046F1
:10054000BDE8F04100F025BA000000002D000000D9
:100550002B000000200000002DE9F05F89460446D2
:100560004FF0000ADFF824B1FB44C0F820A0204679
:10057000E168884700287DD0252806D0D4E90121EC
:100580009047206A401C2062F1E700255F46204624
:10059000E16888472028064607DB312E05D2B819C6
:1005A00010F8200C08B10543F1E7A80701D525F0A4
:1005B0000405C4F81CA00027C4F818A02A2E09D0EE
:1005C000304610F0C4F838B304EB8708303EC8F862
:1005D000186019E059F8041B204604EB870291616A
:1005E000E1688847012F064618D1E069002820DA23
:1005F00025F020051DE0D8F8180000EB800006EB80
:1006000040003038C8F818002046E16888470646A0
:1006100010F09DF80028EED1012F0AD02E2E08D11F
:100620002046E16888477F1C0646022F45F02005DA
:10063000C4DBA069002803DA404245F00105A0614F
:10064000E80701D025F01005A6B1A6F14100192850
:1006500002D8203645F400654A46314620462560DA
:100660004D46FFF7EFFD60B1012807D0ED1D25F0E5
:10067000070000E007E000F1080978E705F1040948
:1006800075E730467AE7206ABDE8F09FE20C01008A
:1006900070B5064600F06EF90468054630460A2239
:1006A000002100F018FC2C6070BD30B505460B46EB
:1006B0002A4613F8014B12F8010B08B1A042F8D0FA
:1006C0001CB1002802D06D1CF1E7284630BD40EA7D
:1006D0000103024630B59B0710D14FF0013400E012
:1006E00008C208C91D1B9D4315EAC41FF8D013F0AA
:1006F000FF0102F8011B0DD01B0AF8E711F8013BBE
:10070000002B02F8013B05D011F8013B002B02F849
:10071000013BF3D130BD10B5431C02E010F8011BC2
:1007200071B18107FAD14FF0013202C88C1A8C43A3
:1007300014EAC211F9D0C01A0A0603D0C01E10BDB7
:10074000C01A10BD0A0401D0801E10BD0902FCD0E1
:10075000401E10BD421E12F8013F002BFBD111F8C4
:10076000013B002B02F8013BF9D17047032A40F20C
:10077000308010F0030C00F0158011F8013BBCF143
:10078000020F624498BF11F801CB00F8013B38BF5B
:1007900011F8013BA2F1040298BF00F801CB38BF69
:1007A00000F8013B11F0030300F02580083AC0F087
:1007B000088051F8043B083A51F804CBA0E808102F
:1007C000F5E7121D5CBF51F8043B40F8043BAFF362
:1007D0000080D20724BF11F8013B11F801CB48BFBC
:1007E00011F8012B24BF00F8013B00F801CB48BFF2
:1007F00000F8012B704710B5203AC0F00B80B1E82B
:100800001850A0E81850B1E81850A0E81850203A45
:10081000BFF4F5AF5FEA027C24BFB1E81850A0E84E
:10082000185044BF18C918C0BDE810405FEA827C68
:1008300024BF51F8043B40F8043B08BF7047D2077F
:1008400028BF31F8023B48BF11F8012B28BF20F820
:10085000023B48BF00F8012B70474FF0000204290B
:10086000C0F0128010F0030C00F01B80CCF1040CDF
:10087000BCF1020F18BF00F8012BA8BF20F8022B13
:10088000A1EB0C0100F00DB85FEAC17C24BF00F8B9
:10089000012B00F8012B48BF00F8012B70474FF0E7
:1008A000000200B5134694469646203922BFA0E8C0
:1008B0000C50A0E80C50B1F12001BFF4F7AF0907CC
:1008C00028BFA0E80C5048BF0CC05DF804EB8900BD
:1008D00028BF40F8042B08BF704748BF20F8022B00
:1008E00011F0804F18BF00F8012B70470000000086
:1008F00030B44FF0013C50F8042B51F8043BCCFAD3
:1009000052F4D51A20D1FCB950F8042B51F8043B0D
:10091000CCFA52F4D51A17D1B4B950F8042B51F8C7
:10092000043BCCFA52F4D51A0ED16CB950F8042B12
:1009300051F8043BCCFA52F4D51A05D1002CDAD088
:1009400030BC4FF00000704729BAB1FA81F111F0C4
:100950001801D1F120008440F2D1CA40CB4012F0FE
:10096000FF0213F0FF0330BCD01A70477047704786
:1009700070470000004870474008002010B5FFF79E
:10098000F9FF006810BD10B50446FFF7F3FF0460DF
:1009900010BD2DE9F0470D4699469246044600F1F8
:1009A00024080168880604D5E06921F0100121605F
:1009B00000E00120A84201DD471B00E00027A169FB
:1009C0007A1902EB0900081AA0612078C00602D447
:1009D0002046FFF735FD002608E0D4E901211AF88A
:1009E00006009047206A401C761C20624E45F4DBCE
:1009F0002078C0060AD52046FFF722FD06E0D4E99C
:100A0000012130209047206A401C2062381EA7F147
:100A10000107F4DC07E0D4E9012118F8050090474C
:100A2000206A401C2062281EA5F10105F3DC204647
:100A3000FFF71CFD2078000602D50220BDE8F087F4
:100A40000120FBE72DE9FF4F0C461E464FF0FF3714
:100A50008BB0D2E90001DDF860800A908A46C1F3CC
:100A60000A5505B93D46002108464FF00000BAF18D
:100A7000000F00F4400005DA00EB80004FF4400165
:100A800001EA50004FEA9059B9F1010F00DDB94673
:100A90000A9850EA4A000ED044F61050A5F2FF35ED
:100AA00045432F14B8F1000F1ED07542291E1EDDDC
:100AB000C9F100021CE0B8F1010F4FF0000001D0B5
:100AC000302103E0F24305E02154401CB042FBDB3F
:100AD00030460022002121540B99C1F80880C1E959
:100AE00000200FB0BDE8F08FBD1B6D1CDEE74A464D
:100AF00000DA694206A800F00DFB06AB93E8070098
:100B000003AB83E8070050460A990FF002FA8DE81C
:100B10000700A0F500501F3800900398002D0ADD53
:100B200042F21F014A460844002303A90390684685
:100B30000FF06CFC09E0A0F500504A461F38002376
:100B400003A9039068460FF076FC8DE807000004C7
:100B5000000C03D04FF0FF30410800E01046B8F120
:100B6000000F03D00022009215461EE0751E05D42A
:100B700000F0FAF9303262556D1EF9D5B346012204
:100B8000084302D000227F1C04E02078302801D1E5
:100B900000227F1E002A099784D01DE0112D07DA5C
:100BA00000F0E2F9303262556D1C50EA0102F5D1D5
:100BB000084302D00098C8B10EE00021681E05E08D
:100BC000235C625C63542254401E491C8142F7DB63
:100BD000AB46A81B401E0990002004F80B000B98A0
:100BE000099AC0F80880C0E9002B7AE711264FF077
:100BF000000857E72DE9F04F88460446D21D22F041
:100C0000070191B0D1E90001CDE90A010FF04AFDD9
:100C100002460B98C00F01D02D2007E02068810705
:100C200001D52B2002E0202101EAC000032A09900F
:100C300001D0072A05DB03464146204600F0DAF9D9
:100C40000BE12078800601D5E06900E00620B8F1CC
:100C5000650F814606D0B8F1660F18D0B8F1670F5E
:100C600070D131E00020B9F1110F009001DB1123A8
:100C700001E009F101030AAA01A90CA8FFF7E2FEAD
:100C8000DDE90C70002609F10105834647E00120EB
:100C90004B4600904FF000470AAA01A90CA8FFF7A5
:100CA000D1FEDDE90DB00C995D46002610B909F1C1
:100CB00001000D18B9EB050003D4C0F1FF3609F1AE
:100CC0000105A5EB09002BE0B9F1010F01DA4FF0A6
:100CD00001090020B9F1110F0090484601DD1123F0
:100CE00000E003460AAA01A90CA8FFF7ABFEDDE964
:100CF0000C704D4600268346207800070AD4AB4589
:100D000000DA5D4601A8012D04DD411911F8011C2E
:100D1000302907D04F4502DA17F1040F04DA012019
:100D200082460FE06D1EEEE7002F02DCED1B3E4415
:100D300003E0781CA84200DD7D1CB81B00F1010A0D
:100D40004FF000472078000703D4AA4501DB4FF09D
:100D5000FF3A0021B7F1004F0DF143088DF8431021
:100D600024D002202B23002F01DA7F422D230A21D9
:100D7000021EA0F1010000DC5FB197FBF1FC97FBC4
:100D8000F1F201FB1C7C17460CF1300C08F801CD88
:100D9000EEE7A8F1010003702188090501D545217E
:100DA00000E06521A0F1010800F8011C09980FA9D5
:100DB000A1EB0807FF1D00B10120411901EBEA700A
:100DC000A1693844081A401EA0612078C00602D4E8
:100DD0002046FFF735FB099828B1D4E90121904757
:100DE000206A401C20622078C00622D52046FFF7EA
:100DF00027FB1EE0002E04DBB34502DD01A8805D69
:100E000000E03020D4E901219047206A401C206294
:100E1000761CAAF101005FEA000A0AD100F0A0F8EE
:100E2000C0680168405CD4E901219047206A401CF9
:100E30002062281EA5F10105DCDC07E0D4E90121D0
:100E400018F8010B9047206A401C2062381EA7F159
:100E50000107F3DC2046FFF709FB032011B041E650
:100E600001694A1C02610878704700B58FB0CDE96E
:100E700001310021059105497944CDE9031011465E
:100E80006846FFF769FB0FB000BD0000E5FFFFFFFC
:100E90000A6802F8010B0A607047D1E900239A4200
:100EA00002D2531C0B601070704710B5436913B128
:100EB000AFF3008001E0FFF7EAFA012010BD1278DD
:100EC00000F124010A7000224A700122EDE7116846
:100ED0004FF0FF32E9E72DE9F04791460F46804693
:100EE0000446002614F8015B2DB100F031F80068CB
:100EF000405DC007F6D12B2D02D02D2D18D0641ED9
:100F00004A463946204600F0B5F827B13968A14273
:100F100001D1C7F800804FF0020471050BD54042A3
:100F2000002803DDFFF726FD0460A007BDE8F08779
:100F300046F48066E4E70028F8DAFFF71BFD04605A
:100F40006FF00040F2E700000048704740080020C2
:100F500010B500F005F8001D10BD00BF2DF8000011
:100F6000004870476008002030B5B0F10A0271F106
:100F700000034FEA900E4EEA817EB0EB0E0061EB6B
:100F800091014FEA101E4EEA017E10EB0E0041EB7C
:100F900011114FEA102E4EEA016E10EB0E0041EBDC
:100FA00011214FEA104E4EEA014E10EB0E0041EBBC
:100FB0001141401841F100014FEAD00040EA417070
:100FC0004FEAD1014FEA810444EA907410EB8005A6
:100FD00044EB01046D1944EB0404521BA3414FF090
:100FE000000348BF0A3200D530BD401C41F100016A
:100FF00030BD00002DE9F0411F460446032601687C
:10100000072A01F4006004DB08B116A505E016A567
:1010100003E008B115A500E015A521F0100020603F
:10102000A069C01EA0610FB1401EA0612046FFF75D
:1010300007FA4FB1D4E9012138469047206A401C95
:101040002062C01C206206E0206AFAE7D4E9012190
:1010500015F8010B9047761EF8D22046FFF706FAE6
:10106000BDE8F0814E414E006E616E00494E460073
:10107000696E66002DE9F05F824615468B460027B3
:101080000AF10104B9460078302801D09DB113E07F
:1010900014F8010B0127782803D0582801D045B156
:1010A0000AE00DB1102D07D1002714F8010B10250F
:1010B00002E0082500E00A250026B0460EE005FB08
:1010C000080005FB06F101271FFA80F801EB104626
:1010D000B6F5803F00D3B94614F8010B294600F05D
:1010E000B0F80028EBDABBF1000F05D00FB1641E99
:1010F00000E05446CBF80040B9F1000F06D0FFF7EE
:1011000039FC02210160C81EBDE8F09F48EA064094
:10111000FAE700002DE9F047814616468AB03548C7
:1011200078440DC88DE80D0032487844801C03AC2B
:101130000DC884E80D0041F69B300844372190FB30
:10114000F1F290FBF1F5A5F1800501FB12041B3CC7
:1011500002D56442012000E00020DFF898A080461C
:101160000027FA44AAF1BE0A0EE0E0070AD0324690
:10117000684607EB470101230AEB81010FF05BF999
:101180008DE8070064107F1C002CEED1194F7F44BE
:10119000AE3F19E0E80715D007EB04100DF1180A6F
:1011A00090E80E008AE80E00C068F04201D198195C
:1011B00008903246012306A903A80FF03CF903ABBF
:1011C00083E807006D10641C002DE3D14FF001038C
:1011D00032466946B8F1000F03A802D00FF016F9A5
:1011E00001E00FF028F9C9E90001C9F808200AB0A8
:1011F000BDE8F087B80101007546FFF7A5FEAE46D1
:1012000005006946534620F00700854618B020B512
:10121000FFF75AF8BDE820404FF000064FF00007F6
:101220004FF000084FF0000BAC46ACE8C009ACE84A
:10123000C009ACE8C009ACE8C00921F007018D463F
:1012400070473A2800D2303820F02002412A01D3DA
:10125000A2F13700884201D34FF0FF30704710B53C
:101260000446AFF300802046BDE81040FFF718B8F1
:1012700001491820ABBEFEE72600020070470000BF
:1012800080B50146806B036C026C13F0500F06D0E2
:10129000D2060FD4806BC26C0846904780BD42F4E2
:1012A0000071016401688A6812F0405F05D001F0A6
:1012B00087FD80BD01F088FD80BD027E002AF6D149
:1012C000CA6A12F4700F02D08A685205EFD44A68D5
:1012D00022F020024A60016C21F480710164016CEB
:1012E000C904E4D4016C41F00101016401F068FD1E
:1012F00080BD000080B5806B40210164416C41F0ED
:101300000401416401F060FD80BD000080B5806B88
:1013100001F058FD80BD000010B542F20432C4F265
:101320000102116821F440311160D2F800C090E848
:101330000A4043EA0C03C46813604A6822F48072CE
:101340004A6002694B6843EA02224A604A6822F016
:1013500040724A604A6842EA0E024A608A6822F491
:1013600000628A608A6822438A60826A8B680124EC
:1013700023F070638B608B68C0F60074A24202D1C8
:1013800023F0405208E01A438A608A6822F04052F3
:101390008A60C26A8B681A438A608A6822F00202F5
:1013A0008A608A68037E90F8204042EA43028A609D
:1013B0004A6884B142F400624A604A684EF200030F
:1013C00022F460424A60426ACFF6FF734C6803EB36
:1013D0004232224301E022F400624A60CA6A40F2CB
:1013E000000C22F47002CA62C3694269CFF6F07C35
:1013F000CC6A0CEB03532343CB628B6823F400735A
:101400008B6090F830008B6843EA402088608868E1
:1014100020F480608860886840EA8220886010BD7F
:10142000F0B542F6790245F6BF40C2F20002C2F2C0
:10143000000090F89710137854785B1A92F802C065
:1014400092F803E018BF012390F8FB5042F25C7160
:10145000C2F200014B5590F8983042F2D577E31A6A
:1014600090F8FC4018BF01230B5590F8993090F884
:10147000FD50BCEB030318BF01234B5590F89A3085
:1014800090F8FE50BEEB030318BF01234B551379B0
:1014900090F89B5042F2D77E5B1B90F8FF5018BF2C
:1014A00001234B55537990F89C50C2F200075B1B07
:1014B00090F8005118BF01234B55937990F89D5037
:1014C000C2F2000E5B1B90F8015118BF01234B556F
:1014D000D37990F89E5042F2D87C5B1B90F8025171
:1014E00018BF01234B55137A90F89F50C2F2000C9D
:1014F0005B1B90F8035118BF01234B55537A90F8AA
:10150000A0505B1B90F8045118BF01234B55937AF0
:1015100090F8A1505B1B90F8055118BF01234B5563
:10152000D37A90F8A2505B1B90F8065118BF0123A4
:101530004B55137B90F8A3505B1B90F8075118BFD5
:1015400001234B55537B90F8A4505B1B90F8085136
:1015500018BF01234B55937B90F8A5505B1B90F867
:10156000095118BF01234B55D37B90F8A6505B1B44
:1015700090F80A5118BF01234B55137C90F8A750DF
:101580005B1B90F80B5118BF01234B55537C90F80F
:10159000A8505B1B90F80C5118BF01234B55937C4E
:1015A00090F8A9505B1B90F80D5118BF01234B55C3
:1015B000D37C90F8AA505B1B90F80E5118BF012302
:1015C0004B55137D90F8AB505B1B90F80F5118BF33
:1015D00001234B55537D90F8AC505B1B90F8105194
:1015E00018BF01234B55937D90F8AD505B1B90F8CD
:1015F000115118BF01234B55D37D90F8AE505B1BA2
:1016000090F8125118BF01234B55127E90F8AF305D
:10161000D21A90F8133118BF0122CA5442F2D47280
:101620004B78C2F200028D78CC780E79137042F2BA
:10163000D673C2F200033D701C708EF800604C79C6
:1016400042F2CD758CF800408C79C2F200052C7006
:10165000CC7942F2CE75C2F200052C700C7A42F2BF
:10166000CF75C2F200052C704C7A42F2D075C2F2EE
:1016700000052C708C7A42F2D175C2F200052C70F4
:10168000CC7A42F2D275C2F200052C70097B42F28C
:10169000D374C2F200042170117840F61042022483
:1016A000C4F20202002908BF4FF400349460397874
:1016B0000124002908BF4FF480349460197818235E
:1016C00000294FF40061C4F2020308BF4FF000612B
:1016D000C3F800189EF800104FF48067002908BF77
:1016E0004FF08067C3F800789CF800104FF4004773
:1016F000002942F2D97108BF4FF000471F60C2F2C3
:10170000000109784FF40067002942F2CC7108BF4C
:101710004FF000671F60C2F2000109784FF4805754
:10172000002908BF4FF080571F60D3F8F817C1F3A6
:10173000801742F2F861C2F200014F701768C7F3D8
:10174000C0378F701768C7F38037CF701768C7F33B
:1017500040370F711768C7F300374F711768C7F329
:10176000C0278F711768C7F38027CF711768C7F339
:1017700040270F721268C2F300224A72D3F8F8238E
:10178000C2F3C0328A7290F8C9208A5C90F8653042
:10179000D31A42F66202C2F2000218BF012313708C
:1017A00090F8CA30CB5C90F86670DB1B18BF012341
:1017B000537090F8CB30CB5C90F86770DB1B18BF90
:1017C0000123937090F8CC30CB5C90F86870DB1BF1
:1017D00018BF0123D37090F8CD30CB5C90F86970BE
:1017E000DB1B18BF0123137190F8CE30CB5C90F84F
:1017F0006A70DB1B18BF0123537190F8CF30CB5CAC
:1018000090F86B70DB1B18BF0123937190F8D030F8
:10181000CB5C90F86C70DB1B18BF0123D37190F880
:10182000D130CB5C90F86D70DB1B18BF01231372B5
:1018300090F8D230CB5C90F86E70DB1B18BF0123A0
:10184000537290F8D330CB5C90F86F70DB1B18BFED
:101850000123937290F8D430CB5C90F87070DB1B4E
:1018600018BF0123D37290F8D530CB5C90F871701B
:10187000DB1B18BF0123137390F8D630CB5C90F8B4
:101880007270DB1B18BF0123537390F8D730CB5C09
:1018900090F87370DB1B18BF0123937390F8D83056
:1018A000CB5C90F87470DB1B18BF0123D37390F8E6
:1018B000D930CB5C90F87570DB1B18BF0123137413
:1018C00090F8DA30CB5C90F87670DB1B18BF012300
:1018D000537490F8DB30CB5C90F87770DB1B18BF4B
:1018E0000123937490F8DC30C95C90F87800081AF2
:1018F00018BF0120D074F0BD80B545F65A4C42F6B1
:10190000940EC2F2000CC2F2000E1CF900301EF957
:1019100000209A1A8A4204DD1EF8001001310EF8E8
:1019200000101CF900101EF900209142A8BF80BDD4
:101930001EF8001001390EF8001080BDFEE700000F
:1019400040F6BC31C2F2000101220A7046F2580191
:10195000C4F2020100220A60486051F8500C40F0C5
:10196000746041F8500C40F6B830C2F200000068D4
:101970000860086840F0010008607047000000003F
:101980002DE9F04F81B02DED048B8CB040F6262070
:10199000C2F2000001881529C0F000814FF0000854
:1019A000A0F8008040F628244FF6FF60C2F2000441
:1019B000C1F6AA30206042F6B900C2F200000078F9
:1019C00045F65841207142F6B600C2F20000007898
:1019D00045F64D42607145F6594045F64C4345F693
:1019E0004947C2F20000C2F20001C2F20002C2F294
:1019F0000003C2F200070078097812781B7897F884
:101A000000C045F64B4645F64A4542F2FB77C2F226
:101A10000006C2F20005C2F2000736782D783F7842
:101A2000CDE900C6CDE902570BF0F8F940F6D735FD
:101A300040F6D63645F6BE47A071C2F20005C2F2A6
:101A40000006C2F2000728786978AA78EB7895F842
:101A500004E095F805C036783F78CDE900ECCDE993
:101A600002670BF0DBF945F6BF4A41F68169E07188
:101A70002072C2F2000AC2F200099AF8190099F91C
:101A80000010401A45F64841C2F20001B0FA80F059
:101A90000978EA792B7A6E7A4009AF7A8DE8C0012D
:101AA000CDF80C800BF0BAF995F80BC0297B6A7B56
:101AB000AB7BEF7B60726046CDE90078CDF80880A3
:101AC000CDF80C800BF0AAF99AF81A1040F65432AF
:101AD00001F007010843A07240F6D430C2F20000C2
:101AE000007841F6F861E07299F90000C2F2000155
:101AF00000EB400001EBC000C079C2F2000220738D
:101B00009AF817009AF8181001F00F0141EA001036
:101B1000607399F80000A07342F6BA00C2F20000A8
:101B200090F87B18E17390F87C18217490F87D1878
:101B3000617490F87E18A17490F87F08E07446F202
:101B40001C00C2F200000188515C2175617501889A
:101B5000A175E17501881144497821766176018883
:101B6000023101800188452928BFA0F80080207932
:101B70004FF0FF31621892790131142980EA020096
:101B8000F8D1A0760020E0761C20FFF7D9FE40F6C1
:101B90002220C2F2000001880131018046F22C00AF
:101BA000C4F2020040F6C0050068C2F200052988B0
:101BB000C0F59670884273D140F6AE00C2F20000C4
:101BC0000088642866D140F6AC00C2F200000178BB
:101BD00000295FD142F6BA020021C2F200020023BE
:101BE000D7180133082B87F8D01287F8D81287F856
:101BF000E01287F8E81287F8F01287F8F81287F8F1
:101C0000001387F8081387F8101387F8181387F85C
:101C1000201387F8281387F8301387F8381387F8CC
:101C2000401387F8381487F8401487F8481487F869
:101C3000501487F8581487F8601487F8681487F8E8
:101C4000701487F8781487F8801487F8881487F858
:101C5000901487F8981487F8A01487F8A814BFD1B7
:101C600040F6BD31C2F2000100220A80C1F8032013
:101C7000C1F80720C1F80B20C1F80F2040F2000185
:101C8000C2F200010A6040F62401C2F200010A60BB
:101C9000012101700CB0BDEC048B01B0BDE8F08FE8
:101CA00042F6BA0040F6242440F6BE0C40F6B808CE
:101CB00040F6EE17C2F200009FED4D8B9FED4E9B5C
:101CC000C2F20004C2F2000C0026C2F20008C2F206
:101CD000000700F5347100F587600691059048E033
:101CE00097F822000EF069FF53EC182B0EF0A0FDC0
:101CF0000EF060FD40F20001C2F20001086097F8AA
:101D000023000EF05AFF53EC192B0EF091FD0EF04C
:101D100051FD40F62401C2F20001086040F6B80807
:101D200040F6AC0040F6C00540F6242440F6BE0C58
:101D30000026C2F20008C2F20000C2F20005C2F2A0
:101D40000004C2F2000C88F8006006702888013098
:101D500028802888B0F5967F46F22C0028BF2E8078
:101D6000C4F2020000682988C0F5967088423FF4EA
:101D700023AF288840F6C201C2F20001085CFF28A8
:101D800001D1218861B12188002975D0FE2802D1B6
:101D90002188012904D02188022907D1AA2813D13A
:101DA000ACF8006020880130208067E0218803299A
:101DB0000CD1ACF8000020880130208040F6BA0039
:101DC000C2F20000068059E0268057E02188BCF866
:101DD0000020914214D22188042911D340F6BA027E
:101DE000C2F2000211887854108801301080D9E7BF
:101DF0000000000000003E40000000000000144011
:101E00002188BCF8002091422AD1BCF8001039B3D7
:101E100040F6BA01C2F200010988262920D139789A
:101E2000BCF80020022A0AD34FF0FF32BB189B787F
:101E3000BCF800E05940D31C01327345F6D3884208
:101E40000ED1012040F6B20188F80000C2F2000174
:101E500008880130088040F6B400C2F20000068015
:101E600098F8000030B940F6BC01C2F200010888C1
:101E700001300880268000BFACF8006098F80000B0
:101E800000283FF463AF00203978069E01F001017D
:101E90003154797800F1080201F001010B92B1543C
:101EA000B97800F1100201F001010A92B154F978F9
:101EB00000F1180201F001010992B154397900F1E1
:101EC000200201F001010892B154797900F1280251
:101ED00001F001010792B154B97900F1300501F028
:101EE00001017155F97900F1380E01F0010106F890
:101EF0000E10397A00F1400C01F0010106F80C10C7
:101F0000797A00F1480B01F0010106F80B10B97A5B
:101F100000F1500A01F0010106F80A10F97A00F107
:101F2000580801F0010106F80810397B00F160093A
:101F300001F0010106F80910797B00F1680301F056
:101F40000101F154B97B00F1700201F00101B154BB
:101F5000F97B059E01F001013154397C0B9C01F0A5
:101F600001013155797C0A9C01F001013155B97CA0
:101F7000099C01F001013155F97C089C01F0010137
:101F80003155397D079C01F001013155797D01F012
:101F900001017155B97D01F0010106F80E10F97DBE
:101FA00001F0010106F80C10397E01F0010106F87C
:101FB0000B10797E01F0010106F80A10B97E01F0DC
:101FC000010106F80810F97E01F0010106F8091078
:101FD000397F01F00101F154797F01F00101B15421
:101FE0004FF0FF317A18537801315B081D29537087
:101FF000F8D1013008287FF447AFB87F40F6BD31F3
:10200000C009C2F200010870B87FC0F380104870A8
:10201000B87FC0F340108873B87FC0F30010C87356
:10202000B87FC0F3C0000874B87FC0F38000487464
:10203000B87FC0F340008874F87FC009C870F87F8B
:10204000C0F380100871F87FC0F340104871F87F2A
:10205000C0F300108871F87FC0F3C000C871F87F2A
:10206000C0F380000872F87FC0F34000487297F810
:10207000200097F8211088427FF432AE97F82000B4
:1020800040F6BD31C009C2F20001887297F8200005
:10209000C0F38010C87297F82000C0F34010087396
:1020A00097F82000C0F30010487319E6B0B5012975
:1020B0001ADB84464FF6FF704FF0000E4AF2010221
:1020C0001CF80E3058406FF0070300BF82EA50043E
:1020D000C50708BF440801332046F7D30EF1010EAF
:1020E0008E4508BFB0BDEBE74FF6FF70B0BD0000F6
:1020F00045F6BF4CC2F2000C9CF8021042F6B80242
:10210000C2F2000211709CF8021042F6B702C2F24D
:10211000000211709CF80210002908BF704741F6B8
:10212000F861C2F200011839002240F2011300BF29
:102130000B859CF802000132824201F11801F7D3AD
:1021400070470000F0B583B041F2C40C41F2C00EFC
:1021500041F2C802C2F2000C0021C2F2000EC2F22B
:10216000000246F21000CCF80010CEF8001011600A
:10217000CDE90011C2F2000003680A2B15D34CF61A
:10218000CD410020CCF6CC416C4600BF1D46A3FBE0
:102190000136F30803EB8306A5EB4606C7B2632DB1
:1021A00000F10100E655F1D8C1B2684642F6743438
:1021B000435400230721C0F601040725465C013D76
:1021C000A65D0029334403EB830618BF7300EEB20B
:1021D0000A2EA1F10101F1D343F6B040C0F2144040
:1021E00041F259715840CDF2B711A0FB014541F6BB
:1021F0005214C0F283145C40A4FB01676D0B42F2E1
:10220000107605FB16004EF6B335C0F2DC256B40A8
:10221000A3FB0115CCF80000780B690B00FB1640FE
:1022200001FB1631CEF80000116003B0F0BD0000D4
:10223000F0B581B040F21045C4F202052868C00430
:1022400044BF28685FEA404009D42868800444BF3E
:10225000D5F8000C5FEA004007D401B0F0BD0AF0E9
:1022600005FE0AF065F801B0F0BD02F02DFC42F267
:10227000FD7445F22040C2F20004C0F26F00C4F8C1
:102280000B0044F64560C2F25400A06047F2613092
:10229000C2F26500606046F25250C6F26C50206097
:1022A0001120214602F01EFE0020207344F220403F
:1022B00047F26156C6F2656046F64C77C7F26C4647
:1022C0006060C6F2614722202146A660276002F0C6
:1022D00009FE02F0A1FD00BF28688004FCD4D5F8F7
:1022E000000C0004F8D446F66160C0F27400A060EF
:1022F00047F26F50C7F22070606046F64470C7F630
:102300002010206001200121224602F0D1FD3F2053
:10231000A08146F22040C6F2656060600120112174
:102320002246A660276002F0C3FD0020207244F21E
:102330002050C5F24E40606046F25950C3F67320FB
:10234000206001202221224602F0B2FD45F6450020
:10235000C0F25400606046F64E70C2F23A0020604F
:1023600001203321224602F0A3FD02F055FD00BFFB
:10237000286880045CBFD5F8000C5FEA0040F7D500
:10238000D5F8000C00047FF568AF0AF06FFD02F08D
:10239000CFFD4FF4967000F0B1FF01B0F0BD00002A
:1023A000B0B541F20000C4F20100016811F00A0F5B
:1023B0000AD04168016821F4787101600BF020FCBB
:1023C00000F08CFA00F05EFA44F20044C4F200041B
:1023D000206810F00A0F0AD06068206820F4787036
:1023E00020600BF047FC00F051F900F023F9D4F81D
:1023F000000444F6004510F00A0FC4F2000510D0A6
:102400004FF60440CFF6FF702858D4F8000420F4AB
:102410007870C4F800040BF067FC00F0ABF800F033
:1024200051F8286810F00A0F0AD06868286820F46C
:10243000787028600BF054FB00F0CCF800F06EF8D8
:1024400045F20000C4F20000016811F00A0F08BF55
:10245000B0BD4168016821F4787101600BF07AFB2E
:1024600000F044F900F002F8B0BD000046F21000A0
:10247000C4F202000021016043F63001C4F20201FF
:102480000A6842F400120A6040F65861C2F2000184
:10249000C16045F20401C4F2000181604FF49671FD
:1024A000416040F20051C0F60001016050F8081C84
:1024B00041F03D0140F8081C016841F00101016054
:1024C0007047000046F22800C4F2020000210160BB
:1024D00043F63001C4F202010A6842F400120A60B5
:1024E00040F6C201C2F20001C16044F60401C4F228
:1024F000000181604FF49671416040F20051C0F6D6
:102500000001016050F8201C41F4746140F8201C67
:10251000016841F0010101607047000046F240008F
:10252000C4F202000021016043F63001C4F202014E
:102530000A6842F400120A6042F29841C2F20001B5
:10254000C16044F60441C4F2000181604FF4967109
:10255000416040F20051C0F60001016050F8381CA3
:1025600041F4741140F8381C016841F00101016028
:102570007047000046F25800C4F2020000210160DA
:1025800043F63001C4F202010A6842F400120A6004
:1025900040F62821C2F20001C16044F60401C4F2F1
:1025A000000181600421416050F8501C40F240421B
:1025B00041F0746140F8501C40F6B831C2F200019D
:1025C000C0F600020A6009680160016841F001017B
:1025D0000160704746F27000C4F202000021016001
:1025E00043F63001C4F202010A6842F400120A60A4
:1025F00042F2C451C2F20001C16044F60441C4F287
:10260000000181600421416050F8641C40F24042A6
:1026100041F03D0140F8641C42F2F061C2F2000159
:10262000C0F600020A6009680160016841F001011A
:102630000160704746F28800C4F202000021016088
:1026400043F63001C4F202010A6842F400120A6043
:1026500040F6EE31C2F20001C16044F20441C4F21E
:10266000000181604FF49671416040F20051C0F664
:102670000001016050F87C1C41F4746140F87C1C3E
:10268000016841F0010101607047000046F2A000BE
:10269000C4F202000021016043F63001C4F20201DD
:1026A0000A6842F400120A6040F61A51C2F20001B0
:1026B000C16044F20441C4F2000181600421416020
:1026C00050F8941C40F2404241F4741140F8941CBC
:1026D00040F64861C2F20001C0F600020A600968D3
:1026E0000160016841F001010160704746F2B800E5
:1026F000C4F202000021016043F63001C4F202017D
:102700000A6842F400120A6040F68A71C2F20001BF
:10271000C16045F20401C4F20001816004214160FE
:1027200050F8AC1C40F2404241F0746140F8AC1CDF
:1027300041F2B801C2F20001C0F600020A60096865
:102740000160016841F001010160704770B546F217
:102750001800C2F20000016845F6E433013101605F
:1027600046F29430C2F2000041880288C2F20003AF
:10277000891A19808188028845F6F03E891AC2F2CA
:10278000000EAEF80010C188028845F6004C891A88
:10279000C2F2000CACF80010B3F90010C82901DD3A
:1027A000012104E0B3F90010952905DC002145F66C
:1027B0001942C2F200021170BEF90010C82901DDF1
:1027C000012104E0BEF90010952905DC002145F641
:1027D0002442C2F200021170BCF90010C82901DDC8
:1027E000012104E0BCF90010952905DC002145F623
:1027F0003042C2F20002117045F6E231C2F200012D
:10280000B1F90020B2F5AA7F35DC45F6E834C2F212
:102810000004B3F90020B3F90030D4E90056C3FB3B
:102820008256C4E9005645F6F836C2F20006BEF9F3
:102830000020BEF90030D6E90054C3FB8254C6E93B
:10284000005445F60846C2F20006BCF90020BCF967
:102850000030D6E90054C3FB8254C6E900540A880C
:1028600001320A8046F22C01C2F20001B0F90800E0
:102870000A681044086046F2BC40C2F2000000F052
:10288000DDFB70BD46F28840C4F202000021016009
:1028900043F63001C4F202010A6842F480020A6081
:1028A00043F2C221C2F20001C16041F20401C4F24C
:1028B0000101816040F6B651416040F20051C0F61E
:1028C0000001016050F87C1C41F4746140F87C1CEC
:1028D000016841F0010101607047000046F2B84014
:1028E000C4F202000021016043F63001C4F202018B
:1028F0000A6842F480020A6044F62661C2F20001CE
:10290000C16041F20401C4F201018160042141600F
:1029100050F8AC1C40F2404241F0746140F8AC1CED
:1029200045F6DC31C2F20001C0F600020A60096817
:102930000160016841F0010101607047D0F800C0FA
:102940006FF00F024AF6AB2352FA8CF2CAF6AA23B2
:102950000146A2FB0330000905A31B5C40F2FF30D7
:102960002CEA00005F2A88BF0430C1E916037047D3
:1029700000061016000610168269816AB2F5005F23
:1029800006D06AB9022912D0012914D0D1B90EE0BB
:10299000032917D8DFE801F0020B020F012070476E
:1029A00003293CBF012070471CBF00207047C06A4C
:1029B000C0F300607047C06AA0F1C070B0FA80F048
:1029C000400970470020704780B5D0F800C0D0F8AB
:1029D00008E0DCF80000BEF1400F20F48020CCF8C5
:1029E00000000846CCF8043004BF10460A46CCF874
:1029F0000800CCF80C2080BD40F61841C4F202015A
:102A000008220A6041F2BC01C2F2000101220A70F0
:102A100046F2B801C4F2020100220A60486051F88F
:102A2000AC0C40F0746041F8AC0C41F2B800C2F25A
:102A3000000000680860086840F001000860704706
:102A40007047000041F6886040F22441C2F2000065
:102A5000C4F2000100680968084441F68461C2F2CA
:102A6000000108607047000041F68861C2F2000171
:102A70000022B0F5803F0A6013DB4FF6FE7C4FF674
:102A8000FF73C0F2010C00BF0A6860451A440A6077
:102A9000A0EB03021046F7DCB2F1FF3F05DD134661
:102AA00010E00246B2F1FF3FF9DC4FF6FF7000BFC5
:102AB0000B6812F5803FA3EB00030B6002EB0003F1
:102AC0001A46F5DD40F2244198B2C4F200010860D4
:102AD00070470000EFF3108072B600BFFEE7000001
:102AE00000BF00BF00BF00BF70470000B0B546F692
:102AF0002814C2F20004207B4FF47A7140F00200E7
:102B00002073E06861F31530E060207BC00705D0DA
:102B1000207B00F0FE0020730DF0BCF941F6F66159
:102B2000C2F200010878012846F65010C2F20000F7
:102B30000ED100220A700178042241F004010170D4
:102B4000017801F0FE010170016862F35631016005
:102B5000017889070DD50178012201F0FD0101708E
:102B600041F2D401C2F200010A70017801F0FB01C8
:102B7000017046F20C00C4F2020050F8081C8906ED
:102B800009D501684FF4002241F0200101601821AD
:102B9000C4F202010A6046F25472806BC2F2000273
:102BA0001368C0F5967040F6FF71984246F2B8532C
:102BB000CFF6C071C2F20003186005D01060226821
:102BC00040F6FC739A432260237800220028C8BF95
:102BD000012203F0FD0343EA420222702268114001
:102BE00041F4A04121602178C9070DD02178012846
:102BF00001F0FE01217007DB0CF06EFB0CF0E2FB34
:102C0000207800F0FD00207046F62205C2F2000593
:102C100095F8CC00C10708BFB0BD46F2BC5400F027
:102C2000FE00C2F2000485F8CC002046FDF773FDDB
:102C300001462046FDF733FEB5F8CA0040B100203A
:102C4000291889782154B5F8CA1001308842F7D381
:102C500046F2BC50C2F2000002A10BF035FA0CF0B3
:102C600055FFB0BD2273657269616C223A000000A5
:102C70001821C4F2020108220A6042F2F461C2F291
:102C8000000101220A7046F27001C4F20201002222
:102C90000A60486051F8640C40F03D0041F8640C53
:102CA00042F2F060C2F2000000680860086840F07C
:102CB000010008607047000070B581B000220092EA
:102CC00090F83C20012A01D1022156E00E68012231
:102CD0001FFA86FC80F83C204FEA4C0212FA86F379
:102CE00002680A2E32BF10321E3B0C324FF0070E24
:102CF00015680EFA03F4A54315608D68146805FA8B
:102D000003F3234313604968062906D8026801EBE0
:102D10008101053902F134030AE00C2901EB81013C
:102D2000026887BF413902F12C03233902F13003D5
:102D30001F221C688A4024EA02021A601A680CFAF0
:102D400001F1114342F2043E1960C4F2010E016820
:102D5000122EAEF5417208BF914205D1DEF8003067
:102D600043F48003CEF8003026F00103102B08BF97
:102D7000914205D0002180F83C10084601B070BD9A
:102D8000DEF80010102E41F40001CEF80010F1D151
:102D900040F63001C2F2000109684DF68362C4F2C8
:102DA0001B32A1FB0212910C01EB8101490000BF13
:102DB000009100990029DDD000990139F8E7000061
:102DC000704700007047000070470000B0B510B3B6
:102DD0000446006C30B9204600F020F80020606402
:102DE00084F83C00206C0125C0060FD4206C41F211
:102DF00002118843023020642046FEF78DFA00203D
:102E00006064206C65F3010000252064002084F8D4
:102E10003C002846B0BD0120B0BD000070B586B0B2
:102E2000044642F200002168C4F2010000268142FB
:102E30000596CDE903660296019601D006B070BDF5
:102E400043F630010096C4F202014A6900F5684079
:102E500042F480724A614A6902F480720092009AD8
:102E600000960A6842F004020A60096801F0040151
:102E7000009100990F2101910321CDE9021601A9CA
:102E800000F050FA46F2BC4546F21040C2F200058E
:102E9000C4F202004FF48061C5E9000605F110009C
:102EA0004FF400624FF400534FF4807C80E80E1022
:102EB0002846C5E90266C5E9086600F085F90028DC
:102EC00018BFFFF707FEA563AC6306B070BD000036
:102ED00070B582B004460020019094F83C000128AF
:102EE00002D1022002B070BD13460A4601202168BB
:102EF00084F83C008868C00718D188684DF683655F
:102F000040F00100886040F63000C2F20000006826
:102F1000C4F21B35A0FB0505A80C00EB400000BF68
:102F20000190019810B101980138F9E78868C0054F
:102F300003D5886820F4807088608D68206CED0768
:102F400007D140F010002064606C40F00100606424
:102F500070E040F20175A84300F580702064486875
:102F6000400504D5206C012565F30D302064256CE7
:102F70000020ED044FF0000544BF656C25F0060508
:102F8000656484F83C00A06B41F2812541F20D3C60
:102F9000C0F60005C0F6000CC0E90F5C41F2F52553
:102FA000C0F60005C5646FF022050D604D6842F261
:102FB000043645F080654D608D68C4F2010645F425
:102FC00080758D604C3100F067F931682068C90662
:102FD0000CD0A6F5417188422CD14FF60451CFF6A2
:102FE000FF71715811F0405F24D11FE042F20001DF
:102FF000C4F20101884215D042F20021C4F201015D
:1030000088420CD042F20011C4F20101884211D171
:103010003168C90606D0A6F5827188420AD13168A6
:10302000C90607D4816811F0405F03D1816841F07F
:1030300080418160002002B070BD0000F0B581B019
:1030400004460020009040F63000C2F20000026802
:10305000D4E9166048F2B51337680821C1F64E333B
:1030600081403942A2FB03250CD0226813685B071C
:1030700008D5136823F004031360B160616D41F05B
:103080000101616501218140394208D022685269FD
:10309000120604D5B160616D41F002016165042141
:1030A0008140394208D022681268920704D5B16085
:1030B000616D41F00401616510218140394215D0F4
:1030C00020680268120711D5B160026801685203D6
:1030D00006D4C90506D4016821F00801016001E0A9
:1030E000080342D4216C09B120468847E16D2020B5
:1030F00000FA01F23A4244D020680368DB0640D56A
:10310000B26094F835300268052B1ED122F0160209
:103110000260426922F080024261226C0AB9A26C0C
:103120001AB1026822F0080202603F208840B060B5
:10313000012084F83500216D0020002984F8340036
:1031400040D02046884701B0F0BD0168520310D43A
:10315000C90512D4016821F010010160012084F832
:103160003500002084F8340007E0A16C0029BBD1B1
:10317000BCE7080301D4616C00E0E16B09B12046B3
:103180008847606DF0B1606DC00717D0052084F8E6
:1031900035002068A90A026822F00102026000BF1F
:1031A000009A01328A42009202D80268D207F7D10F
:1031B000012084F83500002084F83400E16C09B166
:1031C0002046884701B0F0BD2DE9F041044600F0EB
:1031D0007DF9C4B10546022084F83500002021683D
:1031E00084F83400086820F0010008602668306820
:1031F000C0070BD000F06AF9401B0528F6D903215F
:103200002022032042E00120BDE8F081306848F22E
:103210003F01CFF21001251D00EA010C2ECDD4E9AB
:10322000050E41EA0C01114319432943D4E90778FB
:10323000084340EA0E01606A3943042841EA080164
:1032400003D1D4E90B231143194331607169042878
:1032500021F0070141EA00050CD1D4E90A1045EA42
:10326000010538B12046FFF787FB18B10121402244
:1032700001200BE020467561FFF760FBE16D3F2206
:1032800002FA01F18160002201210020626584F8C8
:103290003510BDE8F0810000B0B5044690F8340068
:1032A000012828D0012084F83400A56D94F8350059
:1032B00001281DD1022084F83500002060652046D9
:1032C000FFF782FBE26D3F23206803FA02F2216CD4
:1032D000AA60026842F01602026019B1016841F06A
:1032E00008010160016841F0010101600020B0BDEA
:1032F000002084F834000220B0BD0000B0B50446C0
:1033000000F0E4F8054640F63600C2F2000000780E
:10331000611C18BF044400BF00F0D8F8401BA04255
:10332000FAD3B0BD2DE9F04F83B000F13E4202F177
:10333000FF724FEAB22241F600470192C4F202073F
:1033400008224FF0010E00254FF0000A4FF0000850
:10335000B84208BF072200920AE000BF08F1010846
:103360000AF1040AB8F1100F05F1020500F0A4807B
:103370000C680EFA08FB14EA0B09EFD04C6804F055
:10338000030CACF1010EBEF1010F11D803228768C6
:1033900002FA05F6CA68B743AA403A438260426817
:1033A000C4F3001722EA0B0207FA08F73A43426017
:1033B000BCF1030F1CD0C26803238E6803FA05F723
:1033C000BA4306FA05F73A43BCF1020FC2600FD1C7
:1033D0006FF0030202EA580202440AF01C060F23AF
:1033E000176A03FA06F40B69A743B3403B43136221
:1033F000026803234F68AB409A4307F00303AB40D6
:103400001A4317F4403F4FF0010E0260A6D000228D
:1034100043F644030292C4F202031A6843F60044DE
:1034200042F480421A601A68C4F2010402F4804235
:103430000292029A28F003024FF6084B2244CFF67C
:10344000FF7B52F80B300AF00C070F26BE4023EA30
:10345000060C019B009E072B38BF1E4606FA07F795
:1034600047EA0C0342F80B30A2684B6842EA0907AE
:1034700043F60C4CDE0258BF22EA0907A760C4F2EB
:10348000010CDCF800209E0242EA090758BF22EA3C
:103490000907CCF8007062689E0342EA090758BF2A
:1034A00022EA090767602268DB0342EA090358BF82
:1034B00022EA0903236051E703B0BDE8F08F000062
:1034C000002A08BF090481617047000046F67810A1
:1034D000C2F2000000687047F0B581B0B0B3044696
:1034E00090F83D0028B9002084F83C00204600F008
:1034F0005DFA242084F83D002068016821F0010174
:103500000160016841F400410160016821F400415B
:10351000016000F0C1FB48F28041C0F21E0140F69C
:103520000012656888424FF00001C0F23D0248F287
:10353000A16C4FF0000338BF01219042C0F2010C92
:1035400038BF0123654538BF0B4613B1012001B0D8
:10355000F0BD4DF68361C4F21B31A0FB011221685E
:103560004FEA924E4B684FF4967623F03F0343EABE
:1035700092434B6044F6D3530F6A0EFB06F6C1F23A
:103580006203A6FB033627F03F03B709654538BF42
:10359000970C7A1C1A430A62CA6948F2A0674CF673
:1035A000FF73C0F20107BD4222EA030C0AD80138BA
:1035B0006A00B0FBF2F001306FF31F30042898BFAF
:1035C00004202BE0A368A0F1010E9BB119206843F1
:1035D000BEFBF0F00422013062F31F30000512D070
:1035E0009BB119206843BEFBF0F00422013062F366
:1035F0001F3011E005EB4500BEFBF0F001306FF32A
:103600001F300005ECD1012008E005EB4500BEFBB2
:10361000F0F001306FF31F3040F4004040EA0C003E
:10362000C8610868D4E9072320F0C000104318439C
:103630000860886848F2FF3204F10C0790438CCF91
:1036400018431043A6698860C86820F0FF0038431B
:103650003043C860086840F0010008600020202165
:10366000206484F83D10206384F83E0001B0F0BD72
:103670002DE9F04383B01F4616460D460446FFF77A
:1036800025FF94F83D1020290FD102218146C0F278
:103690001001204601221923CDF8009000F04AFFC6
:1036A00018B994F83C00012803D1022003B0BDE80A
:1036B000F0830121226884F83C101368DDE90B08CF
:1036C0000A99DB0703D1136843F001031360136801
:1036D00023F400631360222284F83D20402284F802
:1036E0003E200022226461626085608D294620852B
:1036F0000020CFF6FF70E062204632463B46CDF810
:103700000080CDF8049000F0FFFD18B1012003B057
:10371000BDE8F083208D022806D0012810D000BB20
:1037200000200290206812E02068016821F4806186
:103730000160016841F4006101600021029113E021
:103740002068016821F480610160002102914169D3
:103750000291816902910299016841F4007101604E
:1037600007E0002002902068416902918069029080
:103770000298208D002877D00427C0F2010716E0B8
:10378000204641464A4600F055FF0028BED1206839
:10379000616A00690870606A218D01306062481EAC
:1037A0002085608D01386085208D00285CD003283D
:1037B0003ED802281CD00128E2D0204639460022FB
:1037C0004346CDF8009000F0B5FE00289ED1206859
:1037D000616A026822F48062026000690870606AAF
:1037E000218D01306062481E2085608D0138608522
:1037F0002046394600224346CDF8009000F09AFE5C
:1038000000287FF483AF2068616A026842F4007286
:10381000026000690870606A2268411C6162218D43
:1038200001392185618D0139618511694170B2E7E6
:10383000204641464A4600F0FDFE00287FF466AF70
:103840002068616A00690870606A228D0130013A5F
:10385000606222852168628D013A62854A69520759
:10386000A2D50969017096E7202084F83D00002068
:1038700084F83E0084F83C0003B0BDE8F08300000B
:103880002DE9F04383B0994616460F460446FFF7EC
:103890001DFE94F83D1020290ED102210546C0F2EC
:1038A0001001204601221923009500F043FE18B9AB
:1038B00094F83C00012803D1022003B0BDE8F08356
:1038C0000121226884F83C101368DDE90B080A998D
:1038D000DB0703D1136843F001031360136823F47B
:1038E00000631360212284F83D20402284F83E20AA
:1038F0000022226461626085608D39462085002047
:10390000CFF6FF70E062204632464B46CDF800808D
:10391000019500F07FFD30B3012003B0BDE8F083D6
:10392000204641462A4600F0B5FE28BB606A216861
:10393000034613F8012B0A61228D6362571E278507
:10394000638D3F04A3F1010363854B6918BF13F036
:10395000040308D0437802300B616062901E20851A
:10396000608D01386085208D0028D9D120464146E0
:103970002A4600F0AFFD40B1206C0428CCD120686D
:10398000016841F400710160C6E72068016841F4F4
:1039900000710160202084F83D00002084F83E0082
:1039A00084F83C0003B0BDE8F0830000B0B586B0F9
:1039B00045F200410068C4F20001002488420594E9
:1039C000CDE903440294019401D006B0B0BD43F6A2
:1039D00030050094C4F20205286840F00200286017
:1039E000286800F00200009000984FF440700190A9
:1039F0001220CDE90204032004900420059001F573
:103A0000D83001A9FFF78EFC0094286940F400101B
:103A10002861286900F400100090009806B0B0BD3D
:103A200040F6360046F67811C2F20000C2F20001FC
:103A300000780A68104408607047000080B543F6BB
:103A40000040C4F20200016841F4007101600168A5
:103A500041F480610160016841F4807101600320DC
:103A600000F060F80F2000F005F800F02BF80020BF
:103A700080BD0000B0B540F63602C2F2000240F64A
:103A800030011278C2F200014FF47A730968B3FB77
:103A9000F2F20446B1FBF2F1084600F0D7FA0F2C1F
:103AA0004FF001050CD858B94FF0FF3021460022E5
:103AB000002500F027F840F63800C2F2000004604C
:103AC0002846B0BD82B0002043F640010190C4F208
:103AD00002014A6842F480424A604A6802F4804225
:103AE0000192019A0090086840F0805008600868D0
:103AF00000F080500090009802B0704780B50AF046
:103B000047F980BD70B514460D4606460AF050F9D7
:103B10002946224608F04AFA014630460AF050F992
:103B200070BD000080B50AF05DF980BD2DE9F0415F
:103B3000002800F08B8043F60808C4F2020804460F
:103B4000D8F8F8030D4600F00700884207D288F83D
:103B5000F853D8F8F80300F00700A84276D120689F
:103B6000810717D5410705D5D8F8001041F4E05179
:103B7000C8F80010010705D5D8F8001041F46041DD
:103B8000C8F80010D8F80010A26821F0F001114325
:103B9000C8F80010C0073FD1D8F8F80300F00700BC
:103BA000A84207D988F8F853D8F8F80300F00700BE
:103BB000A8424BD12068410707D5D8F80010E26829
:103BC00021F4E0511143C8F80010000708D5D8F8D7
:103BD0000000216920F4604040EAC100C8F80000FC
:103BE00000F06CF8D8F8001041F2F422C1F3031190
:103BF000C0F60102515C40F6300220FA01F140F6B5
:103C00003800C2F200000068C2F200021160FFF743
:103C100031FF0020BDE8F0816068811E022907D2D3
:103C200058F8081C89015CBF0120BDE8F08110E054
:103C3000012807D158F8081C89035CBF0120BDE8A2
:103C4000F08106E058F8081C890702D40120BDE87D
:103C5000F081D8F8001021F003010843C8F80000F3
:103C6000FFF734FC064641F2883700BFD8F8000061
:103C7000616800F00C00B0EB810F8DD0FFF726FCDF
:103C8000801BB842F2D90320BDE8F08140F6300035
:103C9000C2F200000068704780B5FFF7F7FF43F6F7
:103CA0000801C4F20201096841F20432C1F3822121
:103CB000C0F60102515CC84080BD000010B543F65B
:103CC0000404C4F20204606800F00C00082842F208
:103CD0000040C0F2F40018BF10BD216822682368BC
:103CE00001F03F02C3F38811A1FB00010023FCF7A0
:103CF000FDFA21680222C1F3014102EB4101B0FB50
:103D0000F1F010BD2DE9F04182B0002800F0A28052
:103D10000446007843F60006C007C4F2020643D00A
:103D2000B06800F00C00042805D1306880033BD552
:103D30006068C8BB8EE0B06800F00C00082802D1B3
:103D400070684002F1D46568B5F5A02F0AD0B5F5CA
:103D5000803F0BD0306820F480303060306820F431
:103D6000802006E0306840F480203060306840F405
:103D700080303060FFF7AAFB002D054611D000BF50
:103D80003068800310D4FFF7A1FB401B6428F7D9EB
:103D900022E100BFFFF79AFB401B64284FF00300AD
:103DA00055D830688003F5D4207880071AD5B068DC
:103DB00010F00C0F09D0B06800F00C00082840F09B
:103DC0008A807068400200F186803068800702D5E2
:103DD000E06801283ED13068216920F0F80040EA0F
:103DE000C10030602078000738D4207840074CD4D8
:103DF000A5695DB3B06800F00C00082840F09E8013
:103E0000012D27D07068E16900F480028A4221D137
:103E1000216A00F03F028A421CD147F6C071626AF3
:103E20000140B1EB821F15D1A26A0023CFF6FF73C8
:103E300003EBC23200F440316FF30F02914209D11B
:103E4000E16A00F07060B0EB016F03D1002002B0B6
:103E5000BDE8F081012002B0BDE8F0816069002872
:103E600040F20000C4F2472057D00121C0F8801E64
:103E7000FFF72CFB054600BF706F8007B5D4FFF736
:103E800025FB401B0228F7D9A6E0306C10F08058C3
:103E90000AD100200190306C40F080503064306CCA
:103EA00000F080500190019847F20007C4F200072B
:103EB0003868C00524D4386840F480703860FFF753
:103EC00005FB05463868C0051AD4FFF7FFFA401B0A
:103ED0000228F7D980E0E068002851D00020C4F221
:103EE000472001210160FFF7F1FA0546306880079D
:103EF0003FF571AFFFF7EAFA401B0228F6D96BE0F5
:103F0000A568052D50D0012D52D0306F20F0010052
:103F10003067306F20F004004DE00021C0F8801EB3
:103F2000FFF7D4FA054600BF706F80077FF55DAFDD
:103F3000FFF7CCFA401B0228F6D94DE00027C4F267
:103F4000472700203866FFF7C1FA022D05460BD13E
:103F50003068800158D5FFF7B9FA401B02284FF0AE
:103F60000300F5D973E700BF306880017FF56EAFBD
:103F7000FFF7ACFA401B02284FF00300F4D966E7C4
:103F80000020C4F2472000210160FFF79FFA054698
:103F9000306880077FF526AFFFF798FA401B0228AC
:103FA0004FF00300F4D952E7306F40F0040030675F
:103FB000306F40F001003067FFF788FA002D0546AA
:103FC00041F2883714D000BF306F800713D4FFF759
:103FD0007DFA401BB842F7D9032002B0BDE8F0815A
:103FE000FFF774FA401BB8424FF003003FF62FAFC3
:103FF000306F8007F4D4B8F1000F7FF4F9AE306C65
:1040000020F080503064F3E604F11C052FCD084306
:104010000021CFF6FF7140EA821001EBC3316FF34C
:104020000F0140EA05600843706001203866FFF721
:104030004DFA0446306880013FF508AFFFF746FAB5
:10404000001B02284FF00300F4D900E780B508F008
:1040500029FF80BD10B590F83C20012A4FF00202E4
:1040600052D0012380F83C3080F83D200268D2F81D
:1040700004E0D2F808C00C682EF07003234341F22C
:10408000FF74C4F20004A24253600DDC40F2FF73DF
:10409000C4F200039A4215DCB2F1804F29D040F2FD
:1040A0000043C4F2000322E040F2FF33C4F20103F4
:1040B0009A4212DC41F60003C4F200039A4218D07F
:1040C000002312E040F60003C4F200039A4210D02D
:1040D00040F60043C4F2000309E044F20003C4F2D6
:1040E00001039A4205D040F20043C4F201039A4210
:1040F00004D149682CF0800319439160012100220A
:1041000080F83D1080F83C20104610BD002804BF08
:10411000012070472DE9F047044690F83D000D4618
:1041200028B9002084F83C00204600F049F802201D
:1041300084F83D00206844F2070281689143816061
:10414000211D09F029FC20684FF6FF7881688269FB
:10415000D0F820C0D5E9003ED5E9026A43EA01095A
:10416000AB6922EA080246EA03234FF6FC46B34352
:10417000D5E9076742EA0A0229691A4342EA062298
:1041800042EA01112CF0AA026B6942EA0E0241EAEE
:10419000073142EA0312C0F80890816102620120EF
:1041A00084F8460084F83E0084F83F0084F842001A
:1041B00084F8430084F83D000020BDE8F08700004B
:1041C00080B586B040F200410068C4F200010022D0
:1041D00088420592CDE903220292019201D006B0F5
:1041E00080BD43F630000092C4F20200036943F040
:1041F00002030361036903F002030093009B009232
:10420000036843F002030360006800F002000090BE
:104210000098302001900220CDE90202CDE904206F
:1042200001F5003001A9FFF77DF806B080BD000060
:1042300010B5044690F83E0094F83F2094F84230C0
:1042400094F843C0042907D089B901284FF0010030
:1042500008BF012B23D010BD012A4FF0010008BF79
:10426000BCF1010FF7D1022084F83F0012E00128D1
:104270004FF0010008BF012AEDD1012BEBD1BCF1B9
:10428000010F18BF10BD022084F83E0084F83F00E3
:1042900084F8420084F84300042907D10EE002208C
:1042A00084F83E0084F84200042907D009B90021AF
:1042B00005E020680021012209F000FC04212068AB
:1042C000012209F0FBFB2068016841F00101016057
:1042D000002010BDFEE700000268516949054FF05B
:1042E00000010FD56FF4806353612022016380F8D1
:1042F0003D2080F83E10026C42F00402026480F817
:104300003C100121084670472DE9F04782B0044671
:1043100000680E460168DDF828A041F48061016064
:104320000168DDF82C9041F480711D46174601604C
:1043300020464FF0011100225346CDF8009000F0C6
:10434000F9F850B120680068C00544BF4FF4007010
:104350002064032002B0BDE8F08740F20208206824
:10436000C0F2010806F0FE060661204641465246AC
:104370004B4600F019F948BB0020019020684A46DE
:10438000416901918069514601900198204600F0F1
:1043900081F998B9012D08D02068390A01612046B9
:1043A00051464A4600F076F940B92068F9B20161F9
:1043B000204651464A4600F06DF958B1206C042859
:1043C00004D12068016841F400710160012002B04D
:1043D000BDE8F087206800220168534641F48071EF
:1043E000016020464FF00111CDF8009000F0A2F8D6
:1043F0000028A7D1206846F001010161204641460E
:1044000052464B4600F0D0F8002818BF012002B0F9
:10441000BDE8F0872DE9F04383B0044600680D46FF
:1044200001680A9F0B9E41F4807199469046016095
:1044300020464FF0011100223B46009600F07AF82A
:1044400050B120680068C00544BF4FF4007020647C
:10445000032003B0BDE8F083206805F0FE01016190
:104460000221C0F2010120463A46334600F09CF892
:1044700018B1012003B0BDE8F0830020029020684D
:10448000324641690291806939460290029820467D
:1044900000F000F940B1206C0428EAD120680168DE
:1044A00041F400710160E4E7B9F1010F0AD020681E
:1044B0004FEA1821016120463946324600F0EAF8F9
:1044C0000028E8D120685FFA88F10161002003B07C
:1044D000BDE8F083F0B581B004460068406940074C
:1044E00024D415460E464F1C04E000BF20684069E6
:1044F00040071BD42046FFF7EFFEA0B9002FF5D0F0
:10450000FEF7E4FF16B1401BB042EFD90020202196
:10451000206384F83D1084F83E00216C41F02001B6
:10452000216484F83C00012001B0F0BD002001B0FE
:10453000F0BD00002DE9F047DDF820801D469146D2
:10454000824601F47F078EB25C1C00BFDAF80000DF
:10455000B7F5803F14BF1830143000683040801B1E
:10456000B0FA80F0400948451BD1002CEED0FEF790
:10457000ADFF1DB1A0EB0800A842E7D90020202123
:10458000CAF830008AF83D108AF83E00DAF8401088
:1045900041F02001CAF840108AF83C000120BDE833
:1045A000F0870020BDE8F0872DE9F041044600685F
:1045B000984643698FB203EA0701B94202D100204D
:1045C000BDE8F0814169490512D41646551C00BF6B
:1045D00035B1FEF77BFF16B3A0EB0800B0421ED842
:1045E000206841693940B942E9D041694905EFD5B0
:1045F000016841F4007101606FF480614161002045
:104600002021206384F83D1084F83E00216C41F0A5
:104610000401216484F83C000120BDE8F081002001
:104620002021206384F83D1084F83E00216C41F085
:104630002001EEE770B515460E4604462068416934
:10464000490613D44169C90612D4FEF73FFF16B1DB
:10465000401BB042F2D900202021206384F83D1095
:1046600084F83E00206C40F020000CE0002070BD7B
:104670006FF01001416100202021206384F83D107B
:1046800084F83E00206C2064002084F83C00012067
:1046900070BD0000F0B581B00446006840690006B6
:1046A00024D415460E464F1C04E000BF2068406924
:1046B00000061BD42046FFF70FFEA0B9002FF5D04F
:1046C000FEF704FF16B1401BB042EFD900202021B5
:1046D000206384F83D1084F83E00216C41F02001F5
:1046E000216484F83C00012001B0F0BD002001B03D
:1046F000F0BD000080B508F053FB46F20D01C2F298
:1047000000010020087046F20C01C2F2000108709E
:1047100046F20201C2F20001087046F20801C2F23C
:104720000001087046F20001C2F20001088046F262
:104730000A01C2F20001088046F20601C2F200013D
:10474000088046F20401C2F20001088040F6EA3116
:10475000C2F20001087040F6EC31C2F2000108809C
:1047600045F6BF41C2F200018A786FF0010303EB06
:10477000420242F69303C2F200031A70C97E642219
:10478000514340F20402C2F200021180118840F647
:104790003402C2F20002118045F64841C2F2000123
:1047A000087040F6E931C2F2000102220A7042F2BA
:1047B000DC71C2F20001087041F6E661C2F200014C
:1047C000087041F6E561C2F20001087046F21E0170
:1047D000C2F20001087042F2DE71C2F200010870FC
:1047E00042F2E171C2F20001087042F2DF71C2F2DE
:1047F0000001087042F2E071C2F20001087041F657
:10480000F261C2F20001087045F67641C2F2000181
:10481000087042F6BA01C2F20001FF2281F80807CF
:1048200081F8792881F87A2881F87B2881F87C281A
:1048300081F87D2881F87E2881F87F2881F8722808
:1048400081F8732881F8742881F8752881F8762812
:1048500081F8772840F20C01C2F200010A7845F68F
:104860004343C2F200031A700978197042F2F561ED
:10487000C2F20001087040F6D031C2F200010860B7
:1048800080BD000080B540F21040C4F20200016813
:10489000C90442F2E671C2F2000102D50A78002A88
:1048A00042D00268D2042FD50A786AB342F2EA7283
:1048B000C2F20002138842F2E17E01331380C2F299
:1048C000000E9EF80030E3BB42F2E27CC2F2000C24
:1048D000BCF800300B2B02D31388082B09D8BCF886
:1048E0000030042B02D31388142B02D81388332BE7
:1048F00027D301238EF8003000231380BCF800205A
:104900000132ACF800201CE00268D20419D442F253
:10491000EA730022C2F200030A701A8042F2E273C4
:10492000C2F200031A800CE042F2E1730122C2F2EB
:1049300000030A701A7041F6F262C2F2000200230C
:1049400013700268520402D58A78002A42D00268A5
:1049500052042FD58A786AB342F2EA72C2F2000298
:10496000938842F2DE7E01339380C2F2000E9EF8FD
:104970000030E3BB42F2E27CC2F2000CBCF8023031
:104980000B2B02D39388082B09D8BCF80230042BD8
:1049900002D39388142B02D89388332B27D3012377
:1049A0008EF8003000239380BCF802200132ACF86E
:1049B00002201CE00268520419D442F2EA73002279
:1049C000C2F200038A709A8042F2E273C2F20003DC
:1049D0005A800CE042F2DE730122C2F200038A70B8
:1049E0001A7041F6F262C2F2000200231370D0F88E
:1049F000002C120401D54A78CAB1D0F8002C120458
:104A000009D54A783AB142F2EA72C2F200025388FA
:104A10000133538018E0D0F8002C120414D442F271
:104A2000EA730022C2F200034A705A800CE042F29C
:104A3000DF730122C2F200034A701A7041F6F2627B
:104A4000C2F20002002313700268920401D5CA78F2
:104A5000B2B10268920408D5CA7832B142F2EA7162
:104A6000C2F20001CA88013208E00268920414D43C
:104A70000022CA7042F2EA71C2F20001CA800CE060
:104A80000122CA7042F2E071C2F200010A7041F6DE
:104A9000F261C2F2000100220A70D0F8001C090481
:104AA0000AD4016849045CBF01685FEA814103D40C
:104AB0000068C00458BF80BD40F6A600C2F20000E6
:104AC0000021018080BD000046F23400C2F20000E7
:104AD00001384FF458710022013900F8012FFBD141
:104AE000704700002DE9F04F81B015460A9A0091F9
:104AF00092B31C46074600204FF0000B07E000BFB2
:104B00000BF1010B0A990FFA8BF0884224DA002C82
:104B1000F6D0C11700EB5171C91001FB04FA00F087
:104B20000701012202FA01F800994FF00009461826
:104B3000002005E009F101090FFA89F0A042DFDA4F
:104B400000EB0A01695C18EA010FF3D00B9A3844B4
:104B5000314600F06FF8EDE701B0BDE8F08F0000DE
:104B600080B582B00244013A9C46D2B20B46CDF8E1
:104B700000C000F011F802B080BD000080B582B026
:104B80000A44013A9C46D3B20246CDF800C000F078
:104B900003F802B080BD00002DE9F04F81B08046DF
:104BA000581A1F4691460D4609F02CF90446A9EB08
:104BB000080009F027F983468442009408DD4C463A
:104BC0004046BD420AD8A046B94604462F4607E0F3
:104BD0003C464F4628464546BD42F4D98046A94644
:104BE000A8EB040009F00EF94FF0FF36A04588BF8E
:104BF0000126B9451AD3A9EB0708054608EBD8707A
:104C00004FEA600A0098F9B2E2B25845DABF0846A6
:104C1000114610460A9A00F00DF80137BAEB050A62
:104C2000F8B244BF3444C2444845EBD901B0BDE8B2
:104C3000F08F00005F2898BF432900D97047B0B5B6
:104C4000CB1701F0070E01EB5371C91001EB4101C5
:104C500046F2340500EB4110C2F200054FF0010CA2
:104C60002B5C0CFA0EF143EA0104002A08BF23EA88
:104C700001042C54BDE8B040704700002DE9F0411C
:104C8000DDF818801C46434616460D460746FFF7DA
:104C900067FF28190138C1B2384632464346FFF74C
:104CA0005FFF3846294622464346FFF767FFB8199B
:104CB0000138C0B2294622464346FFF75FFFBDE8F0
:104CC000F081000042F2F570C2F200000121017093
:104CD00042F2F670C2F200000021017042F2F77059
:104CE000C2F20000017070472DE9F04141F2180650
:104CF0000546C4F202064FF400100C463060FDF782
:104D0000EFFE10204FF01008002D08BF4FF4801068
:104D10003060FDF7E5FE08253560FDF7E1FE4FF454
:104D200000273760FDF7DCFE20064FF0100058BF6B
:104D30004FF480103060FDF7D3FE3560FDF7D0FEF4
:104D40003760FDF7CDFE60064FF0100058BF4FF4FE
:104D500080103060FDF7C4FE3560FDF7C1FE37609E
:104D6000FDF7BEFEA0064FF0100058BF4FF48010B4
:104D70003060FDF7B5FE3560FDF7B2FE3760FDF738
:104D8000AFFEE0064FF0100058BF4FF480103060C7
:104D9000FDF7A6FE3560FDF7A3FE3760FDF7A0FE28
:104DA00020074FF0100058BF4FF480103060FDF71F
:104DB00097FE3560FDF794FE3760FDF791FE6007C2
:104DC0004FF0100058BF4FF480103060FDF788FEA0
:104DD0003560FDF785FE3760FDF782FEA0074FF0D6
:104DE000100058BF4FF480103060FDF779FE356039
:104DF000FDF776FE3760FDF773FEE00708BF4FF45E
:104E00008018C6F80080FDF76BFE3560FDF768FE80
:104E10003760BDE8F08100001020C4F200000021DE
:104E2000016042F2F270C2F20000017042F2F470CE
:104E3000C2F20000017042F2F370C2F20000017091
:104E400042F2F870C2F20000018042F2FA70C2F23F
:104E500000000121017070472DE9F04381B046F652
:104E60007C1604460230C2F20006307015461278F5
:104E70009946884652B108F10207013D307839461B
:104E80000AF028FFAA780135002AF7D1B9F1000FFE
:104E90000AD030780127001B0130C2B220464146BB
:104EA00010230097FFF7EAFE01B0BDE8F083000091
:104EB00070B546F67C1614460D46C2F200063070F8
:104EC00008E000BF002A08BF70BD307829460AF00C
:104ED00001FF01342278202AF4D1307801340430E3
:104EE0003070F7E710B58E4642F6BA31844600209E
:104EF0001923C0F60101724602E000BF04300132FE
:104F00001478202CFAD03CB1203CE4B25C430C5D18
:104F1000013220440130F3E7C0B2C0F1600000EB81
:104F2000D070C0F3470061467246FFF7C1FF10BD65
:104F3000F0B581B041F2D50443F20006C2F200049C
:104F4000C4F200064AF6AA2740F6AC50214640F6C5
:104F5000AC52376008F090FF207800247B2839D0CD
:104F600041F2D505C2F2000528464621FBF775FC43
:104F700041F658302946462208F0A4FF07F028FEE3
:104F800040F20600C2F200003221017041F2CE0070
:104F9000C2F200001721017041F2CF00C2F20000FE
:104FA0003B21017041F2D000C2F20000047007F012
:104FB000D5FB41F6C851C0F60101284640F6AC5277
:104FC00040F6AC54FBF7D2FB0020294640F6AC5229
:104FD00008F078FF41F2D501C2F20001204640F608
:104FE000AC5208F06FFF0A203760FEF787F9376090
:104FF00007F04CFA01B0F0BD10B584B046F2744031
:1050000001220021C2F2000042F2000CC0F6007240
:10501000C4F2010C4FF480330124C0E90A210522B7
:10502000CDE90211CDE90011047680F82010C261AB
:1050300080F83040C0E900C3C0E90211C0E9044172
:10504000FDF7C4FE00283FD10A20CDE90004072067
:10505000029046F27440C2F200006946FDF72CFE51
:1050600090BB0B2000900220019046F27440C2F2E7
:1050700000006946FDF720FE30BB0C2000900320A5
:10508000019046F27440C2F200006946FDF714FE3A
:10509000D0B90D2000900420019046F27440C2F275
:1050A00000006946FDF708FE70B911200090052048
:1050B000019046F27440C2F200006946FDF7FCFD23
:1050C000002804BF04B010BDFDF704FD80B582B018
:1050D0000020019043F63000C4F202000168002273
:1050E00041F4800101600068002100F4800001901B
:1050F00001983820FEF706FD3820FEF7FFFC02B0CD
:1051000080BD00002DE9F04F87B0002543F6300048
:105110000695CDE90455CDE902550195C4F202008A
:10512000016840F2004641F0100101600168C4F2DC
:10513000020601F01001019101990195016806F53F
:10514000406B41F0800101600168002201F08001A4
:1051500001910199019501687E2441F004010160EB
:10516000016801F00401019101990195016841F084
:1051700001010160016801F00101019101990195AE
:10518000016841F002010160016801F00201019132
:1051900001990195016841F00801016000687E21D4
:1051A00000F00800019001985846FEF789F9A6F52D
:1051B0008067384649F66C010022FEF781F906F552
:1051C000806948464FF440610022FEF779F906F500
:1051D000006A50469B210022FEF772F930460821F2
:1051E0000022FEF76DF9012002AE0294CDE903051D
:1051F0000324584631460594FEF794F808204FF0F2
:1052000002080690384631460294CDE9038505949C
:10521000FEF788F849F66C0002900120CDE90305FD
:10522000384631460594FEF77DF84FF4F06002A948
:1052300081E8210138463146FEF774F84FF400400A
:1052400002A981E8210158463146FEF76BF840F289
:1052500000470720C4F202074FF4406B069038461F
:105260003146CDE902B8CDE90454FEF75BF84FF4BE
:10527000704002A981E8210138463146FEF752F814
:105280004FF47F4002A981E8210150463146FEF7E4
:1052900049F84FF4707002A981E82101484631466F
:1052A000FEF740F8012748463146CDF808B0CDE971
:1052B00003750594FEF736F84FF48050CDE90208E7
:1052C0004FF0080B48463146CDE90454CDF818B0EC
:1052D000FEF728F89B20CDE902075046314601270A
:1052E000CDE90454FEF71EF80420CDE9020850462B
:1052F0003146CDE90454CDF818B04FF0080BFEF755
:1053000011F86020CDE902084FF0070950463146F8
:10531000CDE90454CDF81890FEF704F8CDE902B7B2
:1053200040F20047C4F2020738463146CDE9045442
:10533000FDF7F8FFC020CDE9020838463146CDE937
:105340000454CDF81890FDF7EDFF07B0BDE8F08FDD
:1053500080B546F21C5045F20041C2F20000C4F292
:10536000000148F2A06200234FF4804CC0F2010219
:1053700080E80E00C0E9033CC0E90533C0E907330B
:10538000FEF7AAF8002808BF80BDFDF7A3FB0000C8
:10539000B0B58CB003AC20462421FBF780FA46F26E
:1053A000705040F200410025C2F20000C4F200013A
:1053B000C0E9001501214FF6FF72CDE90315CDE9D3
:1053C0000515CDE909152146CDE90055C0E9025280
:1053D00005618561CDE907550B95FEF797FE60B92C
:1053E00046F27050C2F200006946CDE90055FEF762
:1053F00031FE002804BF0CB0B0BDFDF76BFB000010
:1054000041F2CC00C2F200000088C1087C290CD80F
:10541000002100BF00EB80025000B1EB420F08BF3B
:1054200040F2D240B0F57A7FF4D340F6A801C2F240
:1054300000010A6841F25971CDF2B711A2FB0113C4
:105440005B0B42F2107103FB112252B1D3087C2B8B
:1054500009D800BF02EB82025200B2F57A7FF9D37D
:1054600001E041F2E10202FB010046F21001C2F24A
:105470000001086070470000FEE700000000000027
:105480002DE9F04F81B02DED048B86B042F69E07DA
:10549000C2F20007387802280DD145F65A40C2F210
:1054A00000004178022906D197F90010405CB0FA5B
:1054B00080F0400900E0002041F68C61C2F200015A
:1054C0000870087828B145F61140C2F200000022A9
:1054D000026097F9000010F1020F28DB42F2DF7042
:1054E000C2F20000027812B3097839B142F2EA71CF
:1054F000C2F200014988B1F5967F18D9397845F68E
:105500005A420131397097F90010C2F200020023AB
:10551000535497F9001042F69402C2F20002535419
:1055200041F6F761C2F2000101220A70037097F997
:1055300000000128C0F295853878012840F0C48524
:1055400046F23000C2F200001021017041F6F7600F
:10555000C2F20000017859B13978012941F0CD83B8
:1055600046F23201C2F2000103220A8000210170DA
:1055700097F9000045F65A49C2F2000919F800A04F
:1055800097F9000042F69401C2F2000111F800B050
:1055900046F2320540F208080026C2F20005C2F2C7
:1055A000000800BF2888B1B2884240F231850BEB79
:1055B0000600C0B2AAEB000218F806103B78B2FA57
:1055C00082F2012B4FEA52130ED140F20D62C0EB72
:1055D0000010C2F2000202440020FFF73DFC013639
:1055E000042EDFD100F014BD3A78022A04D199F8D4
:1055F0000120002A00F02C813A78022A0AD199F879
:105600000120012A06D140F23A02C0EB0010C2F29A
:105610000002E0E73A78022A0CD199F80120022A28
:1056200008D140F22F52C0EBC000C2F2000202EBE0
:105630004002D1E73A78032A1AD199F80120BAB981
:1056400099F80220012A13D140F2F06200EB001019
:10565000C2F2000202440020FFF7FEFB97F90000AF
:1056600045F6BF4119F80000C2F20001C870B6E764
:105670003A78032A11D199F8012072B999F80220D9
:10568000042A0AD140F2DF02C2F200022C460D25A4
:10569000BE4610FB052225469EE73A78042A0BD128
:1056A00099F8012042B999F80220042A04D199F806
:1056B0000320002A00F097833A78042A1DD199F834
:1056C0000120D2B999F80220042A16D199F80320B2
:1056D000012A12D140F2AD02C2F2000202EBC00276
:1056E0000020FFF7B9FB97F9000045F6BF4119F814
:1056F0000000C2F20001087171E73A78042A14D15F
:1057000099F801208AB999F80220042A0DD199F854
:105710000320022A09D1AC4640F2C5050D22C2F28F
:10572000000510FB0252654656E73A78032A0DD170
:1057300099F8012052B999F80220052A06D140F2C1
:105740003472C0EB0010C2F2000244E73A78032A38
:105750000DD199F8012052B999F80220062A06D1F4
:1057600040F2FE12C0EB0010C2F2000233E73A78BA
:10577000032A0ED199F80120012A0AD199F80220B2
:10578000022A06D140F28E7200EB0010C2F2000233
:1057900021E73A78042A13D199F80120012A0FD180
:1057A00099F80220022A0BD199F80320022A07D186
:1057B00040F220040D22C2F2000410FB02420BE76B
:1057C0003A78042A13D199F80120012A0FD199F8C7
:1057D0000220022A0BD199F80320062A07D140F2B1
:1057E000B2640D22C2F2000410FB0242F4E63A78E1
:1057F000032A0DD199F8012052B999F80220072AFD
:1058000006D140F23A62C0EB0010C2F20002E2E6BA
:105810003A78042A0BD199F8012042B999F802206C
:10582000072A04D199F80320002A00F0F9823A7877
:10583000032A14D199F801208AB999F80220082A7C
:105840000DD140F2CC42C0EB0010C2F20002C2E621
:1058500040F23A22C0EB0010C2F20002BBE63A78F6
:10586000032A0ED199F80120012A0AD199F80220C1
:10587000032A06D140F28562C0EB0010C2F200029A
:10588000A9E63A78042A0CD199F80120012A08D116
:1058900099F80220032A04D199F80320002A00F085
:1058A000AA823A78042A1FD199F80120012A1BD133
:1058B00099F80220032A17D199F80320012A13D15D
:1058C00040F29B0200EBC000C2F200020244002042
:1058D000FFF7C2FA97F9000045F6BF4119F800003A
:1058E000C2F2000108737AE63A78042A1FD199F8C7
:1058F0000120012A1BD199F80220032A17D199F817
:105900000320022A13D140F29B0200EBC000C2F236
:10591000000202440020FFF79FFA97F9000045F6C5
:10592000BF4119F80000C2F20001487357E63A7807
:10593000032A0DD199F8012052B999F80220092AB9
:1059400006D140F25952C2F2000202EB001243E6C5
:105950003A78042A0BD199F8012042B999F802202B
:10596000092A04D199F80320002A00F083823A78AA
:10597000032A0ED199F801205AB999F802200A2A6F
:1059800007D140F28502C2F200020B2410FB042270
:1059900022E63A78042A0BD199F8012042B999F805
:1059A00002200A2A04D199F80320002A00F0798203
:1059B0003A78042A1FD199F80120E2B999F8022017
:1059C0000A2A18D199F80320012A14D140F2D8628A
:1059D00000EB4000C2F2000202EB40020020FFF7A1
:1059E0003BFA97F9000045F6BF4119F80000C2F2F2
:1059F0000001C871F3E53A78032A0ED199F8012025
:105A00005AB999F802200B2A07D140F2E8140B2268
:105A1000C2F2000410FB0242DEE53A78042A0BD100
:105A200099F8012042B999F802200B2A04D199F87B
:105A30000320002A00F04B823A78042A1FD199F8FB
:105A40000120E2B999F802200B2A18D199F8032015
:105A5000012A14D140F2CC6200EB4000C2F20002F5
:105A600002EB40020020FFF7F7F997F9000045F636
:105A7000BF4119F80000C2F200018872AFE53A7820
:105A8000032A0DD199F8012052B999F802200C2A65
:105A900006D140F20E0200EBC000C2F200029AE50D
:105AA0003A78042A0BD199F8012042B999F80220DA
:105AB0000C2A04D199F80320002A00F027823A78B2
:105AC000032A08D199F80120012A04D199F802206B
:105AD000002A00F0BA813A78032A10D199F80120FF
