:020000040800F2
:1000000058700020BD02000859DC0008215B000880
:10001000D56E0008F52B000875FC000800000000F4
:10002000000000000000000000000000F9E30008EC
:10003000E93D00080000000039E00008B5EC0008C8
:10004000D7020008D7020008D7020008D70200082C
:10005000D7020008D7020008D7020008D70200081C
:10006000D7020008D7020008D7020008D70200080C
:10007000D7020008D7020008D7020008D7020008FC
:10008000D7020008D7020008D7020008D7020008EC
:10009000D7020008D7020008D7020008D7020008DC
:1000A000D7020008D7020008D7020008D7020008CC
:1000B00089ED000839F1000871F10008D702000845
:1000C000D7020008D7020008D7020008D7020008AC
:1000D000D7020008D7020008D7020008D70200089C
:1000E000D7020008D7020008D7020008D70200088C
:1000F000D7020008D7020008D7020008D70200087C
:10010000D7020008D702000889F50008D7020008C6
:10011000D7020008D7020008D7020008D70200085B
:10012000613A0008D7020008D7020008D702000889
:10013000D7020008D7020008D7020008D70200083B
:10014000D7020008D7020008D7020008D70200082B
:10015000D7020008D7020008D7020008D70200081B
:10016000D7020008D7020008D7020008D70200080B
:10017000D7020008D7020008D702000800000000DC
:10018000D7020008D702000800F002F800F087F854
:100190000AA090E8000C82448344AAF10107DA45E2
:1001A00001D100F07CF8AFF2090EBAE80F0013F0AD
:1001B000010F18BFFB1A43F001031847546C0100EC
:1001C000746C010010F8013B0A4413F0030408BFEB
:1001D00010F8014B1D1108BF10F8015B641E05D01B
:1001E00010F8016B641E01F8016BF9D1002D15D0D8
:1001F00010F8014B03F00C030C2BA1EB04040ABF15
:1002000010F8013BA4EB8314A4EB032405F10103D4
:1002100014F8016B5B1E01F8016BF9D5914238BFF0
:1002200010F8013BD1D3704700230024002500269D
:10023000103A28BF78C1FBD8520728BF30C148BF49
:100240000B607047662912F04881642900F0348100
:10025000752900F03181632900F0AB85732900F026
:10026000B085002070471FB512F02DF99DE80300FE
:1002700001F0B0FA00F0EEFD04000020002111F0C2
:1002800007FC401C60600020002111F0EBFBE060E7
:1002900001F018F81FBD10B501F07DF810BD01F098
:1002A000ADF81146FFF7DFFF0FF0DAFF01F066FA55
:1002B00003B4FFF7F0FF03BC01F05EFB0948804781
:1002C00009480047FEE7FEE7FEE7FEE7FEE7FEE738
:1002D000FEE7FEE7FEE7FEE704480549054A064B50
:1002E0007047000075ED000889010008586A002079
:1002F00058700020586C0020586C002053EA020C03
:1003000000F069802DE9F04B4FF00006002B1FBF75
:10031000B3FA83F503FA05F424FA05F65E4012BF3A
:100320001643B2FA82F502FA05F4C5F120051EBFA4
:1003300022FA05FC44EA0C04203556EA044C4FEA44
:10034000144418BF641C4FF000084FF0000990429D
:1003500071EB030C39D3002919BFB1FA81F701FA07
:1003600007F6B0FA80F700FA07F6C7F120071EBFBC
:1003700020FA07FC46EA0C062037B6FBF4FCA7EB94
:100380000507103F07F01F0BCBF120060CFA0BFB03
:100390002CFA06F644BFB3460026202FA4BF5E46C3
:1003A0004FF0000B5BEA060C08BF4FF0010B19EB96
:1003B0000B09ABFB027C48EB0608C01B06FB02CC1A
:1003C0000BFB03CC71EB0C01C1E70B460246414627
:1003D0004846BDE8F08B13B54FF000004FF0000128
:1003E000AFF30080BDE81C40704700000FB41CB59F
:1003F000084B06AA7B4469460090059800F0B7FCBC
:1004000004460020694600F0C5FC20461CBC5DF88F
:1004100014FB00009D09000070B504468569006862
:10042000C10601D5302600E02026C00707D070BDE8
:10043000D4E9012130469047206A401C20626D1E9D
:10044000F6D570BD70B5044685690078C00707D140
:1004500070BDD4E9012120209047206A401C206211
:100460006D1EF6D570BD70B50C460546012A05D047
:100470002878800600D5EA69002302E0012305E020
:100480005B1C934202D2E05C0028F9D1A869E6180F
:10049000C01AA861286A184428622846FFF7BCFFE2
:1004A00004E0D5E9012114F8010B9047B442F8D3D8
:1004B0002846FFF7C7FF70BD2DE9F041064600242E
:1004C00010687529314616A510D0AFF300800028BA
:1004D00002DA404213A507E031688A0701D512A568
:1004E00002E0490704D511A5012401E0AFF3008023
:1004F00000210A2206F1240709E0B0FBF2FCB0FB60
:10050000F2F302FB1C00303078541846491C0028D6
:10051000F3D123462A463046BDE8F04100F0B9B990
:10052000000000002D0000002B0000002000000053
:100530002DE9F05F894604464FF0000ADFF824B148
:10054000FB44C0F820A02046E168884700287DD001
:10055000252806D0D4E901219047206A401C20625A
:10056000F1E700255F462046E168884720280646D7
:1005700007DB312E05D2B81910F8200C08B105435D
:10058000F1E7A80701D525F00405C4F81CA0002751
:10059000C4F818A02A2E09D030460FF0ECFB38B36F
:1005A00004EB8708303EC8F8186019E059F8041BBE
:1005B000204604EB87029161E1688847012F0646D7
:1005C00018D1E069002820DA25F020051DE0D8F8D0
:1005D000180000EB800006EB40003038C8F8180027
:1005E0002046E168884706460FF0C5FB0028EED19B
:1005F000012F0AD02E2E08D12046E16888477F1CA3
:100600000646022F45F02005C4DBA069002803DA66
:10061000404245F00105A061E80701D025F0100532
:10062000A6B1A6F14100192802D8203645F400658C
:100630004A463146204625604D46FFF703FE60B12D
:10064000012807D0ED1D25F0070000E007E000F1CC
:10065000080978E705F1040975E730467AE7206A6A
:10066000BDE8F09F2668010070B5064600F002F96B
:100670000468054630460A22002100F0A6FB2C60E3
:1006800070BD000010B5044603E00FF0DBFC401C19
:1006900009D014F8010B05490028F6D1BDE8104037
:1006A0000A200FF0CFBC4FF0FF3010BD4C69002086
:1006B00030B505460B462A4613F8014B12F8010BDC
:1006C00008B1A042F8D01CB1002802D06D1CF1E79F
:1006D000284630BD40EA0103024630B59B0710D1E1
:1006E0004FF0013400E008C208C91D1B9D4315EA04
:1006F000C41FF8D013F0FF0102F8011B0DD01B0A34
:10070000F8E711F8013B002B02F8013B05D011F886
:10071000013B002B02F8013BF3D130BD10B5431C67
:1007200002E010F8011B71B18107FAD14FF00132DC
:1007300002C88C1A8C4314EAC211F9D0C01A0A06F6
:1007400003D0C01E10BDC01A10BD0A0401D0801E07
:1007500010BD0902FCD0401E10BD4FF0000204295C
:10076000C0F0128010F0030C00F01B80CCF1040CE0
:10077000BCF1020F18BF00F8012BA8BF20F8022B14
:10078000A1EB0C0100F00DB85FEAC17C24BF00F8BA
:10079000012B00F8012B48BF00F8012B70474FF0E8
:1007A000000200B5134694469646203922BFA0E8C1
:1007B0000C50A0E80C50B1F12001BFF4F7AF0907CD
:1007C00028BFA0E80C5048BF0CC05DF804EB8900BE
:1007D00028BF40F8042B08BF704748BF20F8022B01
:1007E00011F0804F18BF00F8012B70474FF0013C0B
:1007F00050F8042B51F8043B9A4221D1A2EB0C0390
:10080000934313EACC1317D150F8042B51F8043B4F
:100810009A4215D1A2EB0C03934313EACC130BD1EC
:1008200050F8042B51F8043B9A4209D1A2EB0C0377
:10083000934313EACC13DBD04FF00000704700BFA6
:10084000D01A01BAB1FA81F101F0180122FA01F0CF
:10085000CB40C1F12001DBB2C0B2C01A2CFA01F3C7
:10086000D11A914311EAC311E6D17047704770471E
:100870007047000000487047F469002010B5FFF78A
:10088000F9FF006810BD10B50446FFF7F3FF0460E0
:1008900010BD2DE9F0470D4699469246044600F1F9
:1008A00024080168880604D5E06921F01001216060
:1008B00000E00120A84201DD471B00E00027A169FC
:1008C0007A1902EB0900081AA0612078C00602D448
:1008D0002046FFF7A1FD002608E0D4E901211AF81F
:1008E00006009047206A401C761C20624E45F4DBCF
:1008F0002078C0060AD52046FFF78EFD06E0D4E931
:10090000012130209047206A401C2062381EA7F148
:100910000107F4DC07E0D4E9012118F8050090474D
:10092000206A401C2062281EA5F10105F3DC204648
:10093000FFF788FD2078000602D50220BDE8F08789
:100940000120FBE770472DE9FF4F0C461E464FF094
:10095000FF378BB0D2E90001DDF860800A908A464B
:10096000C1F30A5505B93D46002108464FF0000085
:10097000BAF1000F00F4400005DA00EB80004FF4FC
:10098000400101EA50004FEA9059B9F1010F00DD32
:10099000B9460A9850EA4A000ED044F61050A5F223
:1009A000FF3545432F14B8F1000F1ED07542291EA4
:1009B0001EDDC9F100021CE0B8F1010F4FF000008C
:1009C00001D0302103E0F24305E02154401CB04245
:1009D000FBDB30460022002121540B99C1F808802E
:1009E000C1E900200FB0BDE8F08FBD1B6D1CDEE734
:1009F0004A4600DA694206A800F006FB06AB93E817
:100A0000070003AB83E8070050460A9901F046F857
:100A10008DE80700A0F500501F3800900398002DC6
:100A20000ADD42F21F014A460844002303A903904D
:100A3000684601F0AFFA09E0A0F500504A461F38B9
:100A4000002303A90390684601F0B9FA8DE8070076
:100A50000004000C03D04FF0FF30410800E01046C6
:100A6000B8F1000F03D00022009215461EE0751E5B
:100A700005D400F0F3F9303262556D1EF9D5B34656
:100A80000122084302D000227F1C04E02078302895
:100A900001D100227F1E002A099784D01DE0112D6C
:100AA00007DA00F0DBF9303262556D1C50EA0102C2
:100AB000F5D1084302D00098C8B10EE00021681EAD
:100AC00005E0235C625C63542254401E491C814251
:100AD000F7DBAB46A81B401E0990002004F80B0072
:100AE0000B98099AC0F80880C0E9002B7AE7112614
:100AF0004FF0000857E72DE9F04F88460446D21D15
:100B000022F0070191B0D1E90001CDE90A010FF00F
:100B1000B3F802460B98C00F01D02D2007E02068E3
:100B2000810701D52B2002E0202101EAC000032A21
:100B3000099001D0072A05DB03464146204600F014
:100B4000D3F90BE12078800601D5E06900E00620AA
:100B5000B8F1650F814606D0B8F1660F18D0B8F12C
:100B6000670F70D131E00020B9F1110F009001DB67
:100B7000112301E009F101030AAA01A90CA8FFF75A
:100B8000E2FEDDE90C70002609F10105834647E02D
:100B900001204B4600904FF000470AAA01A90CA87B
:100BA000FFF7D1FEDDE90DB00C995D46002610B9C6
:100BB00009F101000D18B9EB050003D4C0F1FF36AF
:100BC00009F10105A5EB09002BE0B9F1010F01DAEC
:100BD0004FF001090020B9F1110F0090484601DDE6
:100BE000112300E003460AAA01A90CA8FFF7ABFEF7
:100BF000DDE90C704D4600268346207800070AD4B4
:100C0000AB4500DA5D4601A8012D04DD411911F85C
:100C1000011C302907D04F4502DA17F1040F04DA1E
:100C2000012082460FE06D1EEEE7002F02DCED1B77
:100C30003E4403E0781CA84200DD7D1CB81B00F197
:100C4000010A4FF000472078000703D4AA4501DBD2
:100C50004FF0FF3A0021B7F1004F0DF143088DF836
:100C6000431024D002202B23002F01DA7F422D23B2
:100C70000A21021EA0F1010000DC5FB197FBF1FC2C
:100C800097FBF1F201FB1C7C17460CF1300C08F8C5
:100C900001CDEEE7A8F1010003702188090501D517
:100CA000452100E06521A0F1010800F8011C099828
:100CB0000FA9A1EB0807FF1D00B10120411901EBAD
:100CC000EA70A1693844081A401EA0612078C00665
:100CD00002D42046FFF7A0FB099828B1D4E90121EE
:100CE0009047206A401C20622078C00622D520460A
:100CF000FFF792FB1EE0002E04DBB34502DD01A8E6
:100D0000805D00E03020D4E901219047206A401C3A
:100D10002062761CAAF101005FEA000A0AD100F005
:100D200099F8C0680168405CD4E901219047206AC5
:100D3000401C2062281EA5F10105DCDC07E0D4E997
:100D4000012118F8010B9047206A401C2062381ED0
:100D5000A7F10107F3DC2046FFF774FB032011B075
:100D600041E6000001694A1C02610878704700B53D
:100D70008FB0CDE901310021059105497944CDE9D4
:100D8000031011466846FFF7D3FB0FB000BD00000B
:100D9000E5FFFFFF0A6802F8010B0A60704710B513
:100DA000436913B1AFF3008001E0FFF75CFB012062
:100DB00010BD127800F124010A7000224A7001224D
:100DC000EDE711684FF0FF32E9E72DE9F047914672
:100DD0000F4680460446002614F8015B2DB100F052
:100DE00031F80068405DC007F6D12B2D02D02D2DC3
:100DF00018D0641E4A463946204600F0B5F827B19F
:100E00003968A14201D1C7F800804FF00204710592
:100E10000BD54042002803DDFFF72CFD0460A0073E
:100E2000BDE8F08746F48066E4E70028F8DAFFF7CB
:100E300021FD04606FF00040F2E7000000487047B9
:100E4000F469002010B500F005F8001D10BD00BFCA
:100E5000410C010000487047146A002030B5B0F121
:100E60000A024FEA900E71F100034EEA817EB0EB68
:100E70000E0061EB91014FEA101E4EEA017E10EB6D
:100E80000E0041EB11114FEA102E4EEA016E10EBED
:100E90000E0041EB11214FEA104E4EEA014E10EBCD
:100EA0000E0041EB1141401841F100014FEAD00022
:100EB00040EA41704FEAD10110EB80054FEA81040E
:100EC00044EA907444EB01046D1944EB0404521B92
:100ED000A3414FF0000348BF0A3200D530BD401C8B
:100EE00041F1000130BD00002DE9F0411F460446EC
:100EF00003260168072A01F4006004DB08B116A587
:100F000005E016A503E008B115A500E015A521F040
:100F100010002060A069C01EA0610FB1401EA0613A
:100F20002046FFF779FA4FB1D4E9012138469047BE
:100F3000206A401C2062C01C206206E0206AFAE79A
:100F4000D4E9012115F8010B9047761EF8D220460E
:100F5000FFF778FABDE8F0814E414E006E616E00F9
:100F6000494E4600696E66002DE9F05F82461546DF
:100F70008B4600270AF10104B9460078302801D0D9
:100F80009DB113E014F8010B0127782803D05828ED
:100F900001D045B10AE00DB1102D07D1002714F89A
:100FA000010B102502E0082500E00A250026B046C6
:100FB0000EE005FB080005FB06F101271FFA80F88B
:100FC00001EB1046B6F5803F00D3B94614F8010B8B
:100FD000294600F08EFA0028EBDABBF1000F05D0AD
:100FE0000FB1641E00E05446CBF80040B9F1000F89
:100FF00006D0FFF73FFC02210160C81EBDE8F09F4C
:1010000048EA0640FAE700002DE9F0478146164617
:101010008AB0354878440DC88DE80D0032487844D0
:10102000801C03AC0DC884E80D0041F69B300844D9
:10103000372190FBF1F290FBF1F5A5F1800501FB62
:1010400012041B3C02D56442012000E00020DFF8BE
:1010500098A080460027FA44AAF1BE0A0EE0E007F5
:101060000AD03246684607EB470101230AEB8101AB
:1010700000F0A5FF8DE8070064107F1C002CEED166
:10108000194F7F44AE3F19E0E80715D007EB041075
:101090000DF1180A90E80E008AE80E00C068F042D0
:1010A00001D1981908903246012306A903A800F03F
:1010B00086FF03AB83E807006D10641C002DE3D1AD
:1010C0004FF0010332466946B8F1000F03A802D081
:1010D00000F060FF01E000F072FFC9E90001C9F80B
:1010E00008200AB0BDE8F087E05D01002DE9F04777
:1010F00005460C46C86820F4201040F48000C86003
:10110000800602D5084600F07CFAE06841F28201D0
:101110004FF0FF390140022903D0204600F01AFAAF
:10112000B5E000F42041B1F5004F0FD1C00306D562
:101130006168E06A884200D80846606006E020697D
:10114000E062606060690EF030FEA061A06800227D
:10115000EEB200280DDAE1688B050AD4C043A06026
:1011600041F490302260E0606068411C616006706C
:10117000A5E0E0689046226040F40050E0602069FD
:1011800068BB60690EF023FE012704F12405A0B1BD
:10119000A08910F4407F08D0E06900F054F9206184
:1011A00018B1E06840F4006016E0E7612561E0688E
:1011B00020F4407040F480600EE0E06900F043F9F4
:1011C00000282061F1D0E06840F4006010F4407F16
:1011D000E06002D140F48070E06020696060E06807
:1011E00025696FF0010AC1051FD56168E06A884270
:1011F00000D80846411B04D02246284600F0B4F926
:10120000F0BBE068010203D5E562C4E9015854E08F
:10121000691CE1626160E16940F48030491EC4E903
:10122000021030462E70BDE8F087010202D500F4AE
:1012300080320AE06068411C61600670E0680A2E36
:1012400040F48030E06006D00022E16A60688142AC
:1012500003D90B4602E00122F7E70346A7895B1B8F
:101260007F0503D4E7699F4200DDE2B1814200D8E7
:101270000146E5620F1AC4E90158002B09DD00E0C0
:1012800005E022461946284600F06EF908B14846A6
:10129000C9E747B1A069E5626560C01BA061E0686D
:1012A00040F01000E060E068000208D56168A069C5
:1012B000E562491B08446560A0615046B3E73046CB
:1012C000B1E7000010B542485421FFF768FA4148E1
:1012D0005421FFF764FA40485421FFF760FA3F4970
:1012E0003B483C4A3F4B08603D490A603A49196017
:1012F000531C0365481C1065012008653B48344AAF
:1013000039A1784400F09EF920B9384878440A3869
:1013100000F03DFA37482F4A35A1784400F092F9A1
:1013200020B9344878440A3800F031FA32482A4A61
:101330002FA1784400F086F920B92F4878440A3864
:1013400000F025FA40232248DC000021224600F06C
:10135000DEF820B125487844543800F018FA1D48CA
:1013600022464023002100F0D2F820B121487844E1
:10137000543800F00CFA184822461023002100F0DF
:10138000C6F8002806D01C487844BDE810405638FE
:1013900000F0FDB910BD104870B5006D20F00104DB
:1013A0000B4800F0C5F90B4800F0C2F90A4800F0FC
:1013B000BFF909E0206D20F00105204600F0B8F9E2
:1013C000204600F06FF82C46002CF3D170BD0000D1
:1013D000F86800204C690020A0690020BC0A0020A9
:1013E000C00A0020C40A0020720000004D5A01000B
:1013F000770000003C5A01002C5A01007546FFF7A7
:101400001DFDAE4605006946534620F0070085469F
:1014100018B020B5FEF760FFBDE820404FF0000691
:101420004FF000074FF000084FF0000B21F00701CC
:10143000AC46ACE8C009ACE8C009ACE8C009ACE80F
:10144000C0098D46704770B5064600F0A7F90568DB
:1014500006F10B0020F00704B4429CBF002070BDD1
:101460002B466A68BAB11068A04210D304F1080193
:1014700088423CBF5068586007D3516810194160DA
:101480001168091B016058601460101D70BD13467F
:101490005268002AE7D12146284600F087F9002843
:1014A000DED170BD70B50446051F00F077F9006805
:1014B000002C14BF446870BD002C18BFAC423CBF68
:1014C00020466468F8D301680A18AA4218BF45602C
:1014D00003D12A6805461144016028684119A142D8
:1014E0001CBF6C6070BD6168696021680844286039
:1014F00070BD3A2800D2303820F02002412A01D3B2
:10150000A2F13700884201D34FF0FF30704770B529
:10151000C468A50713D0650211D4B2F5807F09D045
:10152000B2F5007F06D0B2F5806F08D1012300F13B
:10153000240106E05D1E6FF07F46B54201D3012015
:1015400070BD0161C361416024F470611143C160E9
:10155000002070BDC16821F4001141F08001C1601C
:1015600000218160016070472DE9F04781461446F3
:101570000E464FF0FF383248D5685769054209D00A
:101580003846A1690EF06AFC002811DB2C48C043E4
:101590000540E5602B463246494638460EF074FC5D
:1015A000A16920F00042B21A11440028A16103D0C1
:1015B0002046FFF7CFFF4046BDE8F08770B50446F0
:1015C0000569C06A6168884200D80846E16821F46C
:1015D0002011E160C90312D5A84208D02246411B60
:1015E0002846FFF7C1FF10B14FF0FF3070BD00205B
:1015F000E562C4E90150E06820F48030E06000203A
:1016000070BD10B50446C06820F02000E060A16AFB
:10161000A06988420DD02046FFF7D0FFE06820F493
:10162000405040F01000E060A06AA0612069E062D4
:10163000606044F24001E0688843E06010BD000053
:10164000100002002DE9F0410C46074616461046F0
:1016500000F06EF82078611C61280AD0722802D050
:1016600077283CD102E00125002405E0022504246E
:1016700002E0082448F2020511F8010B2B2806D0DD
:10168000622809D011F8010C74280AD00BE045F04B
:10169000030544F00204EFE745F0040544F00104BB
:1016A000EAE744F01004384621460EF0A3FB411C43
:1016B00015D00021316171604FF40071F560F16166
:1016C0007061200704D530460222002100F0B8F8EE
:1016D000306D40F0010030653046BDE8F0810020FB
:1016E000FBE72DE9F0410D460646104C206DC10781
:1016F00004D0410804D020F00104F7E722460EE0B0
:101700005420FFF7A0FE07000ED0206D47F0010126
:101710000843542120653846FFF741F83A462946E8
:101720003046BDE8F0418DE70020D6E7F86800209C
:101730002DE9F04704464FF000094FF0FF37C56828
:10174000D4E90486A80707D02046FFF737FF3046C4
:101750000EF018FB002802DA3846BDE8F0872805AD
:1017600002D54046FFF79EFE4C212046FFF717F8B2
:10177000206D20F0010020654846EEE710B50446D4
:10178000AFF300802046BDE81040FEF791BD10B5D4
:1017900000F0D8F8BDE8104000F0CEB8004870471F
:1017A000FC690020704770477047704738B50446A1
:1017B0000A4600206946AFF30080002808BF38BD04
:1017C00002460099204600F0DDF8012038BD0120D6
:1017D00000F02CB9F8B5AFF30080054600200C46A8
:1017E000102000BF0646A819A0420DD9324669460E
:1017F0000020AFF30080070008BF00F017F9009841
:10180000A04218BF0546C419FFF7C8FF0560074688
:10181000F01D20F007004619284600F00AF8B442EF
:1018200008BFF8BDA21B31463868BDE8F84000F09B
:10183000A9B800210160C0E901107047102070476D
:101840002DE9F041044616460D464769007B8007A6
:101850002ED038460EF0BBFA50BB3EB3012E02D05C
:10186000022E25D104E0204600F0A6F805441DE034
:1018700038460EF09AFAE168002841F01001E16064
:1018800005DA2046FFF766FE0120BDE8F081C903B6
:101890000BD56268E16A914200D81146A2691144F1
:1018A0002269891A814200DD08460544002D01DACB
:1018B0000220EAE7E16A6068E268814206D29103A9
:1018C000E06203D522F4003141F01002A66900273E
:1018D000AE4213DCE16A814201D90B4600E00346C7
:1018E00003EB060C2369ACEB030CAC4506DD81422F
:1018F00001D98C4600E084469C4505D1A76027604D
:1019000042F02000A5620DE0AD1BE669AE1B8142EE
:10191000A66000D90846C01A281A206058196060CD
:1019200022F0200003490840E060002084F848705D
:10193000ABE70000BFCFD7FF002801D000F01CB8F4
:101940007047000010B5014602A000F056F80120D3
:1019500010BD000053494752545245443A20526545
:101960006469726563743A2063616E2774206F70D6
:10197000656E3A200000000001491820ABBEFEE76A
:1019800026000200034640688C46002818BF8842A3
:101990003CBF03464068F8D318681844884207D013
:1019A0000CF1030020F00700001D411A521A0146F5
:1019B000081D0A60FFF776BD10B50146C2689007A2
:1019C00003D0900607D5886A0AE0FEF753FF01218D
:1019D0000160881E10BD8B69486818440B69C01AE5
:1019E00091F848301BB191F84910401A10BD11030D
:1019F000FCD50028FADD401E10BD70B505460C462A
:101A00000A2000E06D1C00F018F835B12878002895
:101A1000F8D102E0641C00F010F814B1207800281E
:101A2000F8D1BDE870400A2000F007B810B500F00A
:101A30000DF8BDE81040FFF77FBF08B569468DF887
:101A400000000320ABBE08BD7047000010B50128A0
:101A500005D0002103A0FFF7D0FF012010BD09A190
:101A6000F8E7000053494752544D454D3A204F7511
:101A700074206F662068656170206D656D6F727986
:101A8000000000003A2048656170206D656D6F723E
:101A90007920636F72727570746564005FEA400C40
:101AA00008BF91F0000F4FEA8C234FEAC12243EAAE
:101AB00051514FEA1C5018BF00F5F0404FEA30007A
:101AC00018BF41F000415FEA6C5C00F02980BCF176
:101AD000FF3F08BF40F080407047130C06BF120460
:101AE0004FF0100C4FF0000C130E04BF12020CF15B
:101AF000080C130F04BF12010CF1040C930F04BF68
:101B000092000CF1020CD30F04BF52000CF1010C37
:101B100011464FF00002A0F11F00A0EB0C0070472F
:101B200011F0004F08BF704731F000413FF4D5AFCE
:101B30000B0C06BF09044FF0100C4FF0000C0B0EFD
:101B400004BF09020CF1080C0B0F04BF09010CF1D2
:101B5000040C8B0F04BF89000CF1020CCB0F04BFE7
:101B600049000CF1010CCCF12003A0EB0C0022FA8F
:101B700003F302FA0CF241EA030100F1010070479D
:101B800020F07F4C80EA030023F07F47ACEB070393
:101B900003F57C5300F0004003F1FF032DE9804979
:101BA0004FEA154B09B44FEA144325EA0B4E24EAD9
:101BB00003480FF2042606EB132749083E785FEA34
:101BC000320203FB0667C7F5000707FB06F64FEA7C
:101BD00054374FEAD64606F1020607FB066CCCF1F5
:101BE000005C4FEA1C472CEA074C07FB06F40CFB91
:101BF00006F504EB15464FEA961634BF00204FF069
:101C000000404FEAD13706FB07FC4FEA1C4C0CFBA7
:101C10000BF7D21B03FB0CF761EB07010CFB0EF774
:101C2000B0EB074072EB17420CFB08F734BFA2EB96
:101C30000742B2EB074261EB17414FEA0C444FEA0F
:101C4000910706FB07FC4FEA1C4C0CFB0BF7B0EBB3
:101C5000C74072EB573203FB0CF734BFA2EBC7420D
:101C6000B2EBC74261EB57310CFB0EF7B0EBC7008C
:101C700072EB57720CFB08F734BFA2EBC702B2EB52
:101C8000C70261EB5771039F4FEA816141EA9211EC
:101C900004EBCC044FEAD1374FEA826206FB07FC23
:101CA00042EA90124FEA80604FEA1C4C0CFB0BF7A3
:101CB000D21B03FB0CF761EB07010CFB0EF7B0EB3B
:101CC000074072EB17420CFB08F734BFA2EB074248
:101CD000B2EB074261EB17414FEA8C554FEA91078F
:101CE00004EB9C2406FB07FC4FEA1C4C0CFB0BF797
:101CF000B0EBC74072EB573203FB0CF734BFA2EBDB
:101D0000C742B2EBC74261EB57310CFB0EF7B0EBA9
:101D1000C70072EB57720CFB08F734BFA2EBC70287
:101D2000B2EBC70261EB577115EB4C254FEA8161AD
:101D300041EA92114FEA82624FEAD13742EA9012A9
:101D400006FB07FC44F100044FEA80604FEA1C4C9C
:101D50000CFB0BF7D21B03FB0CF761EB07010CFB31
:101D60000EF7B0EB074072EB17420CFB08F734BFDD
:101D7000A2EB0742B2EB074261EB174115EB1C15D2
:101D80004FEA813141EA92414FEA823242EA90427F
:101D90004FEA80304FEA0C7644F1000448EA0343EE
:101DA0004EEA0B484FF0000EB2EB080C71EB030744
:101DB00024BF624639464EEB0E0E4FF0000B001862
:101DC000524149414BEB0B0BB2EB080C71EB030793
:101DD0007BF1000B24BF624639464EEB0E0E4FF0EE
:101DE000000B0018524149414BEB0B0BB2EB080CB6
:101DF00071EB03077BF1000B24BF624639464EEBC3
:101E00000E0E51EA020718BF46F0010616EB0E76D9
:101E100055F1000254F1000103D5BDE88901BDE888
:101E20000088BDE88901BDE80048B619524141EB80
:101E30000101A3F10103704780807F7E7D7C7B7A66
:101E40007978777676757473727171706F6E6E6D66
:101E50006C6C6B6A6A69686867666665646463630C
:101E600062616160605F5F5E5E5D5D5C5C5B5B5A92
:101E70005A595958585757565655555554545353FF
:101E800052525251515050504F4F4F4E4E4D4D4D5A
:101E90004C4C4C4B4B4B4A4A4A49494948484847A5
:101EA00047474746464645454544444444434343E3
:101EB0004342424242414141002B9C4630D477008C
:101EC0002BD01CB54FEA370703B44FF010004FF08A
:101ED0001001BAF1000F06D0BCF1000FDCBF40F0DA
:101EE000080040F008014FF000000FBCBDE81040B2
:101EF0000BF1010BBBF1010F08BF5FEA170722BF0F
:101F000012F1010211F101014FF0004143F1000310
:101F100000F0004043EA00007047F9D35708D0E7CB
:101F200046EA064613F1400F4FEA16461FDD13F14D
:101F3000200FDFBF16430A46002120335B42BED08C
:101F4000C3F1200746EA064602FA07F74FEA1646AB
:101F500046EA0706C3F1200722FA03F201FA07F75F
:101F600021FA03F14FF0000342EA0702A7E746EA2D
:101F7000020646EA06464FEA164646EA0106BCBF96
:101F800046EA0646360C4FF000034FF000024FF0D1
:101F9000000194E72DE9804C9A46934670B491E88D
:101FA000380007C831EA400C48BF34EA430C03D577
:101FB000FFF7E6FDFFF780FFF0BCBDE8008C2DE9E0
:101FC000804C9A46934670B491E8380007C810F0E8
:101FD000804F08BF13F0804F03D100F005F8FFF7E2
:101FE0006BFFF0BCBDE8008C20F07F4780EA030067
:101FF00023F07F4C07EB0C03A3F57C5300F000406B
:10200000A3F1FE0392F0000F00F0B38095F0000FF3
:1020100000F077802DE901494FEA11404FEA14465C
:1020200021EA004800FB06FC24EA064708FB06F606
:1020300007FB08F800FB07F718EB06484CEB164CBB
:102040004FEA124B18EB07484FEA15464CEB174086
:1020500022EA0B4E0BFB06FC25EA06470EFB06F6B2
:1020600007FB0EFE0BFB07F71EEB064E4CEB164C68
:102070004FF000061EEB074E4CEB174B18EB0B080E
:1020800040F1000018EB0E0B58EB000840F1000087
:102090008F1A4FF000013CBFC943661B14BFB5EB5C
:1020A000040C00213CBFC943F61B4FEA17444EEA1B
:1020B0008E0E27EA04454FEA1C4704FB07622CEA10
:1020C000074C05FB07F70CFB05F604FB0CFC16EBB5
:1020D000074642EB174216EB0C4642EB1C421BEB49
:1020E000060658EB0202414146EA9E0601D5BDE8CC
:1020F0000189B619524141EB0101A3F10103BDE889
:1021000001894FEA14454FEA114724EA054621EABE
:10211000074C05FB07F406FB07F70CFB06F105FB74
:102120000CFC11EB074144EB17444FEA124711EB4B
:102130000C4144EB1C4422EA074C05FB07F206FB6A
:1021400007F70CFB06F605FB0CFC16EB074642EB0B
:10215000174216EB0C4642EB1C456A1854F100017D
:1021600048BF7047B619524141EB0101A3F1010389
:10217000704795F0000F37D04FEA11424FEA1447ED
:1021800021EA024624EA074C02FB07F106FB07F7A7
:102190000CFB06F402FB0CFC14EB074441EB17416B
:1021A0004FEA154714EB0C4441EB1C4125EA074C60
:1021B00002FB07F506FB07F70CFB06F602FB0CFC1F
:1021C00016EB074645EB174516EB0C4645EB1C4254
:1021D000121951F1000148BF7047B619524141EB45
:1021E0000101A3F1010370474FEA14454FEA11477B
:1021F00024EA054621EA074C05FB07F106FB07F731
:102200000CFB06F24FF0000605FB0CFC12EB07423C
:1022100041EB174112EB0C4251EB1C4148BF704798
:10222000921841EB0101A3F10103704770B5054617
:10223000AC6B206C00F0500050BB206C40F4007080
:1022400020642068806800F04050E8B9207ED8B94A
:102250002068C06A00F4700020B12068806800F433
:10226000806088B92068406820F0200021684860BC
:10227000206C20F480702064206C00F4805018B929
:10228000206C40F001002064204601F0B1FE0BE01C
:10229000206C00F0100018B1204601F0ABFE03E006
:1022A000A06BC16C2846884770BD70B50546AC6B05
:1022B00040202064606C40F004006064204601F01F
:1022C00099FE70BD70B50446A56B284601F091FEDD
:1022D00070BD000055494A6822F440324A604A689D
:1022E00043681A434A600268526822F480720368A5
:1022F0005A6002685368026943EA022203685A601E
:102300000268526822F0407203685A60026852689C
:1023100083681A4303685A600268926822F4006274
:1023200003689A6002689268C3681A4303689A60F7
:102330003F4B826A9A4218D00268926822F070621B
:1023400003689A6002689268836A1A4303689A6015
:102350000268926822F0405203689A6002689268AC
:10236000C36A1A4303689A600BE00268926822F01D
:10237000706203689A600268926822F040520368B3
:102380009A600268926822F0020203689A6002680A
:102390009368027E43EA420203689A602022125C3C
:1023A000A2B10268526842F4006203685A6002688F
:1023B000526822F4604203685A6002685368426AB5
:1023C000521E43EA423203685A6005E002685268CE
:1023D00022F4006203685A600268D26A22F4700232
:1023E0000368DA620268D36A828B521E43EA0252A1
:1023F0000368DA620268926822F4007203689A60E5
:102400000268936890F8302043EA422203689A6099
:102410000268926822F4806203689A600268936896
:10242000426943EA822203689A60704700230140B0
:102430000100000FFA480078FA4991F897104840D7
:1024400008B1012000E00020F64991F8FB10F64A9F
:102450005054F3484078F34991F89810484008B137
:10246000012000E00020EF4991F8FC10EE4A5054A2
:10247000EB488078EB4991F89910484008B1012069
:1024800000E00020E74991F8FD10E74A5054E44885
:10249000C078E44991F89A10484008B1012000E062
:1024A0000020E04991F8FE10DF4A5054DC480079E2
:1024B000DC4991F89B10484008B1012000E0002061
:1024C000D84991F8FF10D84A5054D5484079D54999
:1024D00091F89C10484008B1012000E00020D1494B
:1024E00091F80011D04A5054CD488079CD4991F8E7
:1024F0009D10484008B1012000E00020C94991F832
:102500000111C94A5054C648C079C64991F89E1075
:10251000484008B1012000E00020C24991F80211B2
:10252000C14A5054BE48007ABE4991F89F104840B5
:1025300008B1012000E00020BA4991F80311BA4A1D
:102540005054B748407AB74991F8A010484008B1B4
:10255000012000E00020B34991F80411B24A505420
:10256000AF48807AAF4991F8A110484008B10120E6
:1025700000E00020AB4991F80511AB4A5054A8483F
:10258000C07AA84991F8A210484008B1012000E0A3
:102590000020A44991F80611A34A5054A048007B9A
:1025A000A04991F8A310484008B1012000E00020A4
:1025B0009C4991F807119C4A50549948407B99498D
:1025C00091F8A410484008B1012000E0002095498E
:1025D00091F80811944A50549148807B914991F8A0
:1025E000A510484008B1012000E000208D4991F875
:1025F00009118D4A50548A48C07B8A4991F8A61027
:10260000484008B1012000E00020864991F80A11F5
:10261000854A50548248007C824991F8A71048406E
:1026200008B1012000E000207E4991F80B117E4A9C
:1026300050547B48407C7B4991F8A810484008B131
:10264000012000E00020774991F80C11764A50549F
:102650007348807C734991F8A910484008B1012063
:1026600000E000206F4991F80D116F4A50546C48FA
:10267000C07C6C4991F8AA10484008B1012000E0E4
:102680000020684991F80E11674A50546448007D53
:10269000644991F8AB10484008B1012000E00020E7
:1026A000604991F80F11604A50545D48407D5D4982
:1026B00091F8AC10484008B1012000E000205949D1
:1026C00091F81011584A50545548807D554991F859
:1026D000AD10484008B1012000E00020514991F8B8
:1026E0001111514A50544E48C07D4E4991F8AE10D8
:1026F000484008B1012000E000204A4991F8121139
:10270000494A50544648007E464991F8AF10484027
:1027100008B1012000E00020424991F81311424A1B
:10272000505410464078414908701046807840491E
:1027300008701046C0783F490870104600793E493D
:102740000870104640793D490870104680793C4930
:1027500008701046C0793B4908701046007A3A4923
:1027600008701046407A394908701046807A384916
:1027700008701046C07A374908701046007B364909
:1027800008702A48007818B102203449086003E034
:102790004FF40030314908602548007818B1012015
:1027A0002E49086003E04FF480302C49086021482E
:1027B000007820B14FF400602949086003E04FF031
:1027C0000060274908601C48007820B14FF4806001
:1027D0002349086003E04FF08060214908601748F2
:1027E000007820B14FF400401E49886103E04FF0AB
:1027F00000401C4988611C48007820B14FF40060FB
:102800001849886103E04FF0006016498861174855
:10281000007820B14FF48050124988612CE027E005
:10282000A3550020544300203F5500200A090020F2
:102830000C0900200D0900200E0900200F090020BE
:10284000100900201109002012090020130900209E
:10285000140900201509002016090020180C024058
:102860001808024000000240170900200B09002050
:102870004FF08050C8498861C848006800F04000A7
:1028800008B1012000E00020C5494870C548006833
:1028900000F4004008B1012000E00020C049887029
:1028A000C048006800F4804008B1012000E000202A
:1028B000BB49C870BB48006800F4005008B1012053
:1028C00000E00020B6490871B648006800F4805066
:1028D00008B1012000E00020B1494871B14800680A
:1028E00000F4006008B1012000E00020AC498871CC
:1028F000AC48006800F4806008B1012000E00020CE
:10290000A749C871A748006800F4007008B1012009
:1029100000E00020A2490872A248006800F480701C
:1029200008B1012000E000209D4948729E480068DF
:1029300000F4004008B1012000E0002098498872AE
:102940009A4890F8C900085C984991F86510484089
:1029500008B1012000E0002095490870934890F8E4
:10296000CA008F49085C914991F86610484008B147
:10297000012000E000208E4948708C4890F8CB0080
:102980008749085C894991F86710484008B10120DF
:1029900000E0002086498870844890F8CC00804987
:1029A000085C824991F86810484008B1012000E0B5
:1029B00000207F49C8707D4890F8CD007849085CB8
:1029C0007A4991F86910484008B1012000E00020E0
:1029D00077490871754890F8CE007149085C7349D1
:1029E00091F86A10484008B1012000E000207049C9
:1029F00048716E4890F8CF006949085C6B4991F8BE
:102A00006B10484008B1012000E00020684988713F
:102A1000664890F8D0006249085C644991F86C10EF
:102A2000484008B1012000E000206149C8715F48BA
:102A300090F8D1005A49085C5C4991F86D10484003
:102A400008B1012000E0002059490872574890F869
:102A5000D2005349085C554991F86E10484008B1BE
:102A6000012000E0002052494872504890F8D300FD
:102A70004B49085C4D4991F86F10484008B101205E
:102A800000E000204A498872484890F8D400444940
:102A9000085C464991F87010484008B1012000E0F8
:102AA00000204349C872414890F8D5003C49085C71
:102AB0003E4991F87110484008B1012000E0002023
:102AC0003B490873394890F8D6003549085C3749C6
:102AD00091F87210484008B1012000E0002034490C
:102AE0004873324890F8D7002D49085C2F4991F877
:102AF0007310484008B1012000E000202C49887381
:102B00002A4890F8D8002649085C284991F87410A2
:102B1000484008B1012000E000202549C87323483F
:102B200090F8D9001E49085C204991F8751048407A
:102B300008B1012000E000201D4908741B4890F8EE
:102B4000DA001749085C194991F87610484008B135
:102B5000012000E0002016494874144890F8DB007A
:102B60000F49085C114991F87710484008B10120DD
:102B700000E000200E4988740C4890F8DC000849F9
:102B8000085C0A4991F87810484008B1012000E03B
:102B900000200749C8747047000002401008024036
:102BA000C4540020100C0240100402405443002082
:102BB000285500200D4A125C52B20D4B1B56D21AFA
:102BC0008A4205DD0A4A125C521C52B2084B1A5462
:102BD000064A125C52B2064B1B56D21A05D5044A5D
:102BE000125C521E52B2024B1A547047EC0F002076
:102BF0000010002000BFFEE701210A4A11700021E9
:102C0000094A91651146C865896841F0746191600F
:102C10000649096891651146896D41F00101916588
:102C20007047000078080020006002407C08002007
:102C300070B52DED048B84B0FD48008814287DDD2F
:102C40000020FB490880FF20FA490870FE204870E8
:102C5000AA2088701B20C870F74800780871F748D0
:102C600000784871F6480078F6490A78F6490978FC
:102C7000F64B1B78CDE90031CDE90220F44803780A
:102C8000F4480278F4480178F44800780BF0D0FF5B
:102C9000E8498871F2480278F2480378F2484079AE
:102CA000F1490979F04ECDE90232CDE90010F3780F
:102CB000B278717830780BF0BBFFDE49C8710846F6
:102CC000C0790872E948407EE94991F900108842CC
:102CD00001D1012000E0002005460022E248807A70
:102CE000E149497ACDE90102DF4803920091037A74
:102CF000C279E048017828460BF09AFFCD49487226
:102D00000021D948C07BCDE900010291D64E039144
:102D1000B37B727B317BF07A0BF08AFFD349897EDB
:102D200001F007010843C3498872D3480078C8728C
:102D3000CF4890F9000000EB400000E065E0CF498B
:102D400001EBC000C079BB490873C848C07DF021C1
:102D500001EA0010C549097E01F00F010843B54999
:102D60004873C34800788873C54890F87B08C873D7
:102D7000C34890F87C080874C14890F87D084874EE
:102D8000BF4890F87E088874BD4890F87F08C874E2
:102D9000BC48BD490988405CA64908750846007DC5
:102DA0004875B948008888750846807DC875B5495A
:102DB000B5480088401C085C9E4908760846007E9D
:102DC0004876B1480088801CAF49088008460088D2
:102DD000442801DD0020088096480479052004E09D
:102DE0009449095C4C40411CC8B21A28F8DB914850
:102DF000847600208F49C8761C20FFF7FDFEA3488B
:102E00000088401CA149088000BF6DE2A048A1498C
:102E10000988445CFF2C0BD19F48008840B90020F2
:102E20009E4908809C480088401C9B49088086E099
:102E30009948008818B90020984908807FE0FE2C46
:102E40000CD195480088012808D1002093490880BA
:102E500091480088401C9049088070E08E480088A6
:102E600002280ED1AA2C08D100208C4908808A485B
:102E70000088401C8849088061E00020864908805D
:102E80005DE08548008803280AD184480480824890
:102E90000088401C804908800020814908804EE05D
:102EA0007D4800887D490988884212DA7A4800887E
:102EB00003280EDD7B487A49098844547848008805
:102EC000401C7749088074480088401C724908807B
:102ED00035E07148008871490988884222D16F48DD
:102EE000008800281EDD6E48008826281AD16D480B
:102EF0000178012004E06B4A125C5140421C90B200
:102F0000664A12889042F6DB8C420AD10120664A5A
:102F1000107066480088401C644A10800020644A93
:102F2000108000BF6048007820B962480088401CCB
:102F300060490880002058490880584908805A484C
:102F40000078002873D0002028E15649097801F064
:102F5000010259490A545349497801F0010356497D
:102F600000F108028B544F49897801F0010352495E
:102F700008328B544B49C97801F001034E4908329D
:102F80008B544849097901F001034B4908328B54AD
:102F90004449497901F00103474908328B544149BA
:102FA000897901F00103444908328B543D49C979BC
:102FB00001F00103404908328B543A49097A01F083
:102FC00001033D4908328B543649497A01F0010327
:102FD000394908328B543349897A01F00103364963
:102FE00008328B542F49C97A01F001033249083263
:102FF0008B542C49097B01F001032F4908328B5473
:103000002849497B01F001032B4908328B5425499B
:10301000897B01F00103284908328B542149C97B7F
:1030200001F0010225490A541E49097C48E04EE19D
:1030300092080020B63B0020360900203709002006
:103040003C0A0020450900204409002043090020D3
:1030500042090020410900203509002034090020E0
:103060003B0A002040090020F75F00205443002065
:10307000850A0020390A00206A0A002070600020BA
:10308000D455002020540020940800208A080020F5
:10309000E23C0020820800208E08002088080020E2
:1030A000840800200E3E0020800800208C080020AC
:1030B0009008002086080020A45800200C5A002008
:1030C00001F00103C74900F108028B54C649497C4D
:1030D00001F00103C34908328B54C349897C01F0D4
:1030E0000103C04908328B54BF49C97C01F0010378
:1030F000BC4908328B54BC49097D01F00103B94930
:1031000008328B54B849497D01F00103B5490832B2
:103110008B54B549897D01F00103B24908328B54C3
:10312000B149C97D01F00103AE4908328B54AE4963
:10313000097E01F00103AB4908328B54AA49497E4C
:1031400001F00103A74908328B54A749897E01F099
:103150000103A44908328B54A349C97E01F001033D
:10316000A04908328B54A049097F01F001039D4911
:1031700008328B549C49497F01F001039949083278
:103180008B54002106E0984A525C5210964B5A54D8
:103190004A1C51B21E29F6DB411CC8B20828FFF6B2
:1031A000D4AE9148807FC009904908708E48807FD6
:1031B000C0F3801048708C48807FC0F34010887343
:1031C0008948807FC0F30010C8738748807FC0F3B0
:1031D000C00008748448807FC0F38000487482482F
:1031E000807FC0F3400088747F48C07FC009C870EA
:1031F0007D48C07FC0F3801008717B48C07FC0F35A
:10320000401048717848C07FC0F30010887176483C
:10321000C07FC0F3C000C8717348C07FC0F3800096
:1032200008727148C07FC0F3400048726E4890F841
:1032300020006D4991F82110884217D16A4890F812
:103240002000C00969498872674890F82000C0F3DF
:103250008010C872644890F82000C0F340100873D2
:10326000614890F82000C0F3001048735E4991F85F
:1032700022000EF022FE41EC190B9FED5D0B53EC8A
:10328000102B0EF059FC41EC180B0EF017FC00EE61
:10329000100A594880ED000A534991F823000EF0B6
:1032A0000CFE41EC190B9FED550B53EC102B0EF05F
:1032B00043FC41EC180B0EF001FC00EE100A5148E3
:1032C00080ED000A002050490870504908705048AD
:1032D0000088401C4E49088008460088B0F5967F5B
:1032E00001DB0020088000BF4A48C06AC0F5967024
:1032F0004749098888427FF489AD47480088642897
:103300006BD142480078002867D100BF42E000221C
:1033100042490A54002300F108028B5408328B54AE
:1033200008328B5408328B5408328B5408328B5439
:1033300008328B5408328B5408328B5408328B5429
:1033400008328B5408328B5408328B5408328B5419
:10335000002224490A5400F108028B5408328B548D
:1033600008328B5408328B5408328B5408328B54F9
:1033700008328B5408328B5408328B5408328B54E9
:1033800008328B5408328B5408328B5408328B54D9
:10339000411CC8B20828BADB0020144908704870E4
:1033A0008873C873087448748874C8700871487149
:1033B0008871C871087248728872C872087348733D
:1033C0009FED170A0C4880ED000A9FED150A0D4885
:1033D00080ED000A01200D49087004B0BDEC048B9B
:1033E00070BD00000C5A00200E3E0020E45F00205B
:1033F0000000000000003E40240900200000000002
:10340000000014402C0900208008002081080020C2
:1034100082080020006002409A080020A458002082
:10342000000000000E4880780E4908700C48807833
:103430000D49087000200DE0012100EB40020B4B0C
:1034400003EBC202117400EB400203EBC2025174A1
:10345000411CC8B2024989788142EDDC7047000006
:1034600054430020830A0020840A0020706000205A
:103470001CB50021264B1960264B1960264B19609C
:10348000009101910022254908680BE00A21B0FB58
:10349000F1F301FB13010DF802100A21B0FBF1F06A
:1034A000511CCAB20928F1D8C1B20DF8021000208F
:1034B00007210BE01DF80130194CE35C184400298A
:1034C00002DD00EB800358004B1ED9B20A29F1DB64
:1034D0001449414042F21073B1FBF3F403FB1411A1
:1034E0000B4B19601049414042F21073B1FBF3F4E9
:1034F00003FB1411074B19600C49414042F2107351
:10350000B1FBF3F403FB1411034B19601CBD000065
:10351000EC080020F0080020F4080020FC0800203F
:1035200019610108B03C140452198301B3EBDC02A9
:1035300010B54048006800F4805058B100BF3D48C5
:10354000006800F4804028B100BF0BF09DFB0AF03A
:1035500075FD6EE03748006800F40050002868D020
:1035600000BF3548006900F40040002861D000BF6A
:1035700002F03AFF31A13548FCF738FF33491120FA
:1035800003F0A4F932A13148FCF730FF2F49222083
:1035900003F09CF903F03AF900BF2648006800F4F4
:1035A000005000B1F9E72448006900F4004000B180
:1035B000F3E72BA12548FCF719FF244A012108460F
:1035C00003F062F929A12148FCF710FF1F4A1121DD
:1035D000012003F059F929A11C48FCF707FF1B4AF9
:1035E0002221012003F050F927A11848FCF7FEFE24
:1035F000164A3321012003F047F903F007F900BF11
:103600000C48006800F4005028B90B48006900F429
:1036100000400028F4D00848006900F4004040B1A0
:1036200000BF0BF031FB03F083F94FF4967001F00B
:1036300033F810BD100402400010024052656C6562
:1036400061736520454E5420546F0000880F0020A0
:103650004C6F61642044656661756C740000000005
:10366000446F20796F752077616E74004C6F6164D0
:103670002064656661756C743F0000005965733A9B
:1036800020454E54000000004E6F3A20455854002B
:1036900000B53148006800F00A0068B12E48406863
:1036A0002D48006820F478702B4908600CF000FA6F
:1036B00000F0B8FA00F086FA2848006800F00A0026
:1036C00070B12648001D00682448006820F4787016
:1036D000224908600CF034FA00F04EF900F01AF9B3
:1036E0001F48006800F00A0070B11D48001D006806
:1036F0001B48006820F47870194908600CF06EFAD5
:1037000000F0ACF800F05AF81648006800F00A0023
:1037100070B11448001D00681248006820F47870E9
:10372000104908600CF016F900F0C6F800F06EF8C9
:103730000D48006800F00A0068B10B4840680A486C
:10374000006820F47870084908600CF04DF900F02A
:103750004DF900F00BF800BD00100140004400409E
:1037600000480040004C00400050004000200E493E
:1037700008610E48006840F400100C4908600C48CD
:103780000949C8610B4888614FF4967048610A483E
:1037900008610846806840F03D008860084600697E
:1037A00040F001000861704700600240303802407C
:1037B000F6410020045000400005000800200E499A
:1037C00088620E48006840F400100C4908600C48FC
:1037D000094948630B4808634FF49670C8620A4869
:1037E00088620846806840F4746088600846806A91
:1037F00040F00100886270470060024030380240AB
:10380000E23C0020044800400005000800200E496A
:1038100008640E48006840F400100C4908600C4829
:103820000949C8640B4888644FF4967048640A4894
:1038300008640846806840F4741088600846006C8C
:1038400040F00100086470470060024030380240D8
:103850006C3F0020044C0040000500080020104987
:1038600088651048006840F400100E4908600E4852
:103870000B4948660D4808660420C86508468068FC
:1038800040F0746088600A480A4908600846006889
:10389000034988650846806D40F0010088657047DF
:1038A0000060024030380240B63B0020044800402F
:1038B000400400087C0800200020104908671048D8
:1038C000006840F400100E4908600E480B49C867B4
:1038D0000D488867042048670846C06840F03D00EE
:1038E000C8600A480A490860084600680349086732
:1038F0000846006F40F00100086770470060024012
:1039000030380240403E0020044C00404004000893
:10391000A40800200020134908601348006840F400
:1039200000101149086011480E498839C1F8940007
:103930000F480C49083108604FF49670091F086061
:103940000C4808498839C1F888000846C06840F426
:103950007460C8600846D0F8880040F00100014952
:103960000860704788600240303802408A3A002080
:10397000044400400005000800201649086016486D
:10398000006840F400101449086014481149A03937
:10399000C1F8AC0012480F490831086004200D49F5
:1039A000A039C1F8A4000846C06840F47410C8608B
:1039B0000C480D490860084600680649A039C1F85E
:1039C000A0000846D0F8A00040F0010001490860BE
:1039D00070470000A0600240303802405E3900208D
:1039E00004440040400400087008002000201649EC
:1039F00008601648006840F4001014490860144834
:103A00001149B839C1F8C40012480F49083108609B
:103A100004200D49B839C1F8BC000846C06840F020
:103A20007460C8600C480D49086008460068064983
:103A3000B839C1F8B8000846D0F8B80040F0010025
:103A40000149086070470000B86002403038024009
:103A5000CA4000200450004040040008C408002070
:103A600010B54A480068401C4849086048484088EA
:103A700047490988401A00B246490880444880886E
:103A800043490988401A00B2434908804048C08829
:103A90003F490988401A00B2404908803D48B0F9C2
:103AA0000000C82803DD01203D49087007E03948BF
:103AB000B0F90000962802DA00203949087036482B
:103AC000B0F90000C82803DD01203649087007E07E
:103AD0003148B0F90000962802DA00203149087018
:103AE0002E48B0F90000C82803DD01202E490870D7
:103AF00007E02A48B0F90000962802DA00202A4997
:103B000008702A48B0F90000B0F5AA7F3ADC2148D5
:103B100000882049098810FB01F0C117244A136866
:103B20005268C0185141224A106051601A480088FA
:103B30001949098810FB01F0C1171E4B1A685B6810
:103B4000801859411B4A106051601448008813497D
:103B5000098810FB01F0C117174A13685268C01892
:103B60005141154A1060516010480088401C00B255
:103B70000E4908800648B0F9080010490968084451
:103B80000E4908600E4800F0A7FB10BD1C0900207C
:103B9000B0540020680900206A0900206C09002048
:103BA0005009002051090020520900206E09002010
:103BB00070090020780900208009002018090020E1
:103BC000100B00200020124908601248006840F4E1
:103BD00080001049086010480D490C3108600F48FA
:103BE000091F086040F6B650091F08600C48091FFD
:103BF000086007487C38006840F4746004497C39E8
:103C000008600348006840F00100014908607047FF
:103C10008864024030380240FC1D0020041001403E
:103C2000000500080020134908601348006840F4AC
:103C300080001149086011480E490C310860104895
:103C4000091F08600420091F08600A48AC38006892
:103C500040F074600749AC3908600A480A490860B6
:103C600008460068034908600846006840F0010003
:103C700008607047B86402403038024046100020A7
:103C800004100140400400085C0800200146087848
:103C900010381823B0FBF3F20848805CC865032A8B
:103CA00005D908686FF30900001D886503E00868FE
:103CB0006FF309008865886D70470000336D010857
:103CC000014600208A6A8B69CBB932B1012A0DD036
:103CD000022A03D0032A10D10EE000BFCB6A03F002
:103CE0008073B3F1807F00D1012007E0CB6AB3F18C
:103CF000C07F00D1012001E000E000BF34E08B690B
:103D0000B3F5005F1AD132B1012A07D0022A03D0DD
:103D1000032A11D10AE000BF01200EE0CB6A03F0B4
:103D20008073B3F1807F00D1012006E0CB6AB3F14C
:103D3000C07F00D1012000E000BF15E032B1012AB0
:103D400005D0022A04D0032A0CD103E000BF00BF33
:103D5000012008E0CB6A03F08073B3F1807F00D1CB
:103D6000012000E000BF00BF704730B50468246840
:103D700024F4802405682C60046863608468402C07
:103D800004D10468A2600468E16003E00468A160F3
:103D90000468E26030BD000008210F4A1160012173
:103DA0000E4A117000210E4A11600D49B839C1F850
:103DB000BC00C96841F07461094AB83AD160094948
:103DC0000968C2F8B8101146D1F8B81041F00101E5
:103DD000034A116070470000180C0240C008002020
:103DE000B8600240C4080020704700000348006823
:103DF00003490968084403490860704724040040E7
:103E0000F8090020F40900200021104A116009E09F
:103E10000E4909684FF6FF7211440C4A1160A0F573
:103E20007F40FF38B0F5803FF2DA09E007490968C2
:103E3000A1F57F41FF39054A11604FF6FF71084433
:103E40000028F3DB81B2024A11607047F8090020B4
:103E50002404004072B600BFFEE700BF00BF00BFF1
:103E600000BF704738B502460020009000BF92F8AE
:103E70003C00012801D1022038BD012082F83C001D
:103E800000BF0868092816D91068C0680C780A3C79
:103E900004EB44050724AC40A0431468E0600C78B0
:103EA0000A3C04EB44048868A0401468E46820439A
:103EB0001468E06013E0106800690C7804EB4405B6
:103EC0000724AC40A043146820610C7804EB440440
:103ED0008868A040146824692043146820614868F9
:103EE000072817D21068406B0C79641E04EB840518
:103EF0001F24AC40A04314686063088880B20C792A
:103F0000641E04EB8404A0401468646B20431468AE
:103F1000606331E048680D2817D21068006B0C7997
:103F2000E41F04EB84051F24AC40A0431468206305
:103F3000088880B20C79E41F04EB8404A040146864
:103F4000246B20431468206316E01068C06A0C7963
:103F50000D3C04EB84051F24AC40A0431468E062D0
:103F6000088880B20C790D3C04EB8404A0401468EE
:103F7000E46A20431468E062194B1A4C1068A042AE
:103F800006D10868122803D1586840F480005860B0
:103F9000144C1068A0421CD10868102802D0086890
:103FA000112816D1586840F400005860086810289D
:103FB0000FD10D4800680D4CB0FBF4F000EB800011
:103FC0004000009002E00098401E009000980028F9
:103FD000F9D100BF002082F83C0000BF00BF4BE7D2
:103FE0000023014000200140A40A002040420F00AD
:103FF000704770477047000070B5044600250CB943
:10400000012070BD1549A06A884200D000BF206C15
:1040100030B9204600F024F80020606484F83C00A9
:10402000206C00F0100088B9206C20F4885040F01B
:10403000020020642046FEF74DF900206064206CE9
:1040400020F0020040F00100206400E0012500BFE4
:10405000002084F83C0000BF2846D2E70100000F92
:1040600010B586B00446142101A8FCF798FB284936
:10407000206888424AD100BF00200090254800688F
:1040800040F48070234908600846006800F480709E
:10409000009000BF00BF00BF002000901D481438F2
:1040A000006840F004001B491439086008460068A5
:1040B00000F00400009000BF00BF0F20019003201B
:1040C00002900020039001A9134800F0F9FA134868
:1040D0001349086000204860002111488160C160D8
:1040E0004FF480610161490041618900816149119A
:1040F000C16100210162416200F00EFA08B1FFF7D0
:10410000A9FE00BF0648A063846300BF06B010BDCF
:104110000020014044380240000802401064024080
:10412000100B0020F8B504460D46164600200090FE
:1041300000BF94F83C00012801D10220F8BD012005
:1041400084F83C0000BF2068806800F00100A0B93E
:104150002068806840F00100216888605548006848
:104160005549B0FBF1F000EB4000009002E00098F0
:10417000401E009000980028F9D12068806800F463
:104180008070B0F5807F05D12068806820F4807051
:10419000216888602068806800F0010000287ED0D7
:1041A000206C40F20161884340F4807020642068F4
:1041B000406800F4806028B1206C20F4005040F486
:1041C00080502064206C00F48050B0F5805F04D1F2
:1041D000606C20F00600606401E00020606400BFB5
:1041E000002084F83C0000BF344F3548A16BC86301
:1041F0003448A16B08643448A16BC8646FF0220096
:10420000216808602068406840F08060216848604C
:104210002068806840F4807021688860226802F11C
:104220004C0133462A46A06B00F0ECF9786800F0A8
:104230001F0018BB25492068884213D024492068F4
:10424000884204D1381D006800F01F0050B1214998
:10425000206888422BD11948001D006800F01F001B
:10426000102824D22068806800F04050F8B92068F7
:10427000806840F080402168886018E01349206819
:10428000884214D12068806800F0405078B92068D6
:10429000806840F080402168886008E0FFE7206C7B
:1042A00040F010002064606C40F001006064002069
:1042B00044E70000A40A002040420F000023014010
:1042C0002D220008C5220008AB2200080020014072
:1042D0000021014000220140F8B504460020009072
:1042E0008C4800684FF41651B0FBF1F7A56D2E68AD
:1042F00094F85C1008208840304098B1206800682D
:1043000000F0040070B12068006820F0040021680B
:10431000086094F85C1008208840A860606D40F048
:104320000100606594F85C1001208840304068B15D
:104330002068406900F0800040B194F85C100120D2
:104340008840A860606D40F00200606594F85C10E1
:1043500004208840304068B12068006800F0020006
:1043600040B194F85C1004208840A860606D40F073
:104370000400606594F85C1010208840304078B3E9
:104380002068006800F0080050B394F85C1010201A
:104390008840A8602068006800F4802080B1206810
:1043A000006800F4002028B9206CC8B12046216CB8
:1043B000884715E0A06C98B12046A16C88470FE0B3
:1043C0002068006800F4807028B92068006820F038
:1043D000080021680860206C10B12046216C8847D5
:1043E00094F85C10202088403040002865D0206878
:1043F000006800F0100000285FD094F85C102020C6
:104400008840A86094F83500052828D12068006805
:1044100020F01600216808602068406920F08000C4
:1044200021684861206C08B9A06C28B12068006838
:1044300020F008002168086094F85C103F20884054
:10444000A860012084F8350000BF002084F8340003
:1044500000BF206D10B12046216D8847F8BD20684F
:10446000006800F4802080B12068006800F400201B
:1044700028B9606C10B12046616C88471DE0E06B84
:10448000D8B12046E16B884717E02068006800F447
:10449000807068B92068006820F01000216808600A
:1044A000012084F8350000BF002084F8340000BFEC
:1044B000E06B10B12046E16B8847606D38B3606DEA
:1044C00000F00100F0B1052084F835002068006894
:1044D00020F001002168086000BF0098401C009097
:1044E000B84200D905E02068006800F0010000280B
:1044F000F3D100BF012084F8350000BF002084F80C
:10450000340000BFE06C10B12046E16C884700BF6A
:10451000A4E70000A40A00202DE9F041044600258C
:1045200000F0CEF9074614B90120BDE8F081606AB9
:1045300000B100BF022084F8350000BF002084F8DD
:10454000340000BF2068006820F001002168086086
:104550000AE000F0B5F9C01B052805D920206065E8
:10456000032084F83500E0E72068006800F00100CF
:104570000028EED12068056821480540D4E90101F2
:104580000843E16808432169084361690843A16958
:104590000843E1690843216A08430543606A042827
:1045A00003D1D4E90B010843054320680560206866
:1045B000456925F00705606A0543606A04280DD146
:1045C000A06A0543E06A48B12046FFF779FB28B1AD
:1045D00040206065012084F83500A6E72068456129
:1045E0002046FFF753FB064694F85C103F208840B6
:1045F000B06000206065012084F83500002094E759
:104600003F8010F02DE9F04704460D4616461F4640
:104610004FF00008D4F8589000BF94F834000128F7
:1046200002D10220BDE8F087012084F8340000BFE9
:1046300094F83500012825D1022084F835000020A7
:1046400060653B46324629462046FFF78EFB94F8CC
:104650005C103F208840C9F808002068006840F0DE
:10466000160021680860206C28B12068006840F0BE
:104670000800216808602068006840F00100216897
:10468000086006E000BF002084F8340000BF4FF04F
:1046900002084046C6E7000070B5044600F010F975
:1046A00006462546681C10B104480078054400BF42
:1046B00000F006F9801BA842FAD370BDA00A0020C2
:1046C000F8B502460B460025002400200021D6E064
:1046D000012606FA01F51E6806EA0504AC4274D10B
:1046E0001E7906F00306012E04D01E7906F003069B
:1046F000022E13D190684F000326BE40B0434F00F6
:10470000DE68BE4030439060506801268E40B04362
:104710001E79C6F300168E40304350601E7906F0B5
:104720000306032E09D0D0684F000326BE40B043D5
:104730004F009E68BE403043D0601E7906F00306ED
:10474000022E13D1CF0802F1200656F827004E079B
:10475000F70E0F26BE40B0434F07FF0E1E69BE4046
:104760003043CF0802F1200646F8270010684F00BA
:104770000326BE40B0431E7906F003064F00BE403C
:10478000304310605E6806F44036002E76D000BFDD
:10479000002600963C4E366846F480463A4F3E600E
:1047A0003E46366806F48046009600BF00BF374E8E
:1047B0008F0856F827008E07370F0F26BE40B043EC
:1047C000334EB24202D1002624E057E0314EB242CD
:1047D00001D101261EE0304EB24201D1022619E07D
:1047E0002E4EB24201D1032614E02D4EB24201D129
:1047F00004260FE02B4EB24201D105260AE02A4ED4
:10480000B24201D1062605E0284EB24201D1072668
:1048100000E008268F073F0FBE4030431B4E8F0835
:1048200046F82700224E3068A0435E6806F48016E2
:1048300006B120431E4E3060361D3068A0435E68CE
:1048400006F4001606B12043194E361D3060184E8E
:10485000361F3068A0435E6806F4003606B1204378
:10486000134E361F3060361F3068A0435E6806F472
:10487000803606B120430E4E083E3060491C102998
:10488000FFF426AFF8BD000044380240083801406C
:10489000000002400004024000080240000C0240F8
:1048A000001002400014024000180240001C0240A8
:1048B000083C01400AB1816101E00B04836170474B
:1048C0000148006870470000980A002070B504464F
:1048D0000CB9012070BD94F83D0028B9002084F87F
:1048E0003C00204600F006FB242084F83D002068B0
:1048F000006820F00100216808602068006840F42A
:104900000040216808602068006820F400402168A9
:10491000086000F0D1FC05465C496068884206D812
:104920005B48854201D2012007E0002005E059489C
:10493000854201D2012000E00020012800D1C9E712
:104940005548B5FBF0F62068406820F03F00304342
:10495000216848604D496068884201D8701C07E0B2
:104960004FF4967070434FF47A71B0FBF1F0401C35
:104970002168096A21F03F01084321680862434920
:104980006068884214D8681E61684900B0FBF1F085
:10499000401CC0F30B00042801D204203DE0681E37
:1049A00061684900B0FBF1F0401CC0F30B0034E03B
:1049B000A06838B9681E616801EB4101B0FBF1F0F5
:1049C000401C0AE0681E616801EBC10202EB0111A4
:1049D000B0FBF1F0401C40F48040C0F30B0008B97C
:1049E00001201AE0A06848B9681E616801EB410126
:1049F000B0FBF1F0401CC0F30B000CE0681E6168D6
:104A000001EBC10202EB0111B0FBF1F0401CC0F35D
:104A10000B0040F4804040F400402168C9694CF626
:104A2000FF72914308432168C861D4E90701084334
:104A30002168096821F0C001084321680860D4E9B1
:104A4000031008432168896848F2FF329143084304
:104A500021688860D4E9050108432168C96821F00C
:104A6000FF0108432168C8602068006840F0010029
:104A70002168086000202064202084F83D00002088
:104A8000206384F83E0000BF24E70000A0860100F8
:104A900080841E0000093D0040420F002DE9FC5FAC
:104AA00004460F4690469946DDE90CAB0E9EFFF793
:104AB00007FF054694F83D00202870D119230122F4
:104AC000B0492046009501F09BF910B10220BDE8E5
:104AD000FC9F00BF94F83C00012801D10220F6E7BA
:104AE000012084F83C0000BF2068006800F001004D
:104AF00028B92068006840F001002168086020683B
:104B0000006820F4006021680860222084F83D00DD
:104B1000402084F83E0000202064C4F824A0A4F8BB
:104B20002AB0608D20859848E0624B46424639465F
:104B30002046CDE9006501F015F808B10120C6E76F
:104B4000208D88B900BF0020019020684069019045
:104B500020688069019000BF00BF2068006840F4B1
:104B600000702168086040E0208D012818D120687D
:104B7000006820F480602168086000BF0020019078
:104B800020684069019020688069019000BF00BFE3
:104B90002068006840F400702168086025E0EFE0BC
:104BA000208D022816D12068006820F480602168DA
:104BB00008602068006840F400602168086000BF59
:104BC0000020019020684069019020688069019070
:104BD00000BF0AE000BF00200190206840690190FA
:104BE00020688069019000BF00BFBAE0208D0328D3
:104BF0007ED8208D012815D12A463146204601F065
:104C0000A4F908B1012062E720680069616A0870B0
:104C1000606A401C6062208D401E2085608D401EB1
:104C200060859EE0208D02282AD133460022574914
:104C30002046009501F0E4F808B1012047E720681C
:104C4000006840F400702168086020680069616AAB
:104C50000870606A401C6062208D401E2085608D57
:104C6000401E608520680069616A0870606A401CA7
:104C70006062208D401E2085608D401E608570E042
:104C80003346002241492046009501F0B9F808B1A9
:104C900001201CE72068006820F48060216808601B
:104CA00020680069616A0870606A401C6062208D3B
:104CB000401E2085608D401E6085334600223349AA
:104CC0002046009501F09CF808B10120FFE620681D
:104CD000006840F400702168086020680069616A1B
:104CE0000870606A401C6062208D401E208500E0D4
:104CF00010E0608D401E608520680069616A087060
:104D0000606A401C6062208D401E2085608D401EC0
:104D1000608526E02A463146204601F016F908B1A2
:104D20000120D4E620680069616A0870606A401C4E
:104D30006062208D401E2085608D401E6085206849
:104D40004069C0F3800060B120680069616A087042
:104D5000606A401C6062208D401E2085608D401E70
:104D60006085208D00287FF441AF202084F83D002D
:104D7000002084F83E0000BF84F83C0000BFA6E697
:104D80000220A4E6020010000000FFFF0400010062
:104D90002DE9FC5F04460F4690469946DDE90CABD1
:104DA0000E9EFFF78DFD054694F83D0020287DD12D
:104DB000192301224D492046009501F021F810B138
:104DC0000220BDE8FC9F00BF94F83C00012801D1FF
:104DD0000220F6E7012084F83C0000BF206800684C
:104DE00000F0010028B92068006840F00100216847
:104DF00008602068006820F40060216808602120B5
:104E000084F83D00402084F83E0000202064C4F86F
:104E100024A0A4F82AB0608D20853548E0624B4676
:104E2000424639462046CDE9006500F04BFF08B107
:104E30000120C6E731E02A463146204601F0C5F898
:104E400050B1206C042805D12068006840F400703F
:104E5000216808600120B4E7606A00782168086171
:104E6000606A401C6062208D401E2085608D401E5F
:104E7000608520684069C0F3800070B1208D60B10A
:104E8000606A007821680861606A401C6062208D59
:104E9000401E2085608D401E6085208D0028CAD16F
:104EA0002A463146204600F07DFF00E01CE050B16C
:104EB000206C042805D12068006840F40070216847
:104EC000086001207DE72068006840F400702168D8
:104ED0000860202084F83D00002084F83E0000BFD8
:104EE00084F83C0000BF6CE702206AE70200100073
:104EF0000000FFFF10B586B00446142101A8FBF79F
:104F00004EFC1B492068884230D100BF0020009031
:104F10001848006840F0020016490860084600681A
:104F200000F00200009000BF00BF4FF440700190FD
:104F3000122002900020039003200490042005908A
:104F400001A90D48FFF7BCFB00BF002000900948F5
:104F50001030006840F4001006491031086008461F
:104F6000006800F40010009000BF00BF06B010BD44
:104F700000540040303802400004024003480068FA
:104F8000034909780844014908607047980A0020DD
:104F9000A00A002010B50D48006840F400700B49CD
:104FA00008600846006840F48060086008460068B1
:104FB00040F480700860032000F0A2F80F2000F099
:104FC00007F800F02BF8002010BD0000003C024064
:104FD00070B504460E4800784FF47A71B1FBF0F0DA
:104FE0000C490968B1FBF0F5284600F019FC08B13E
:104FF000012070BD102C07D200222146501E00F067
:1050000041F80548046001E00120F2E70020F0E7E4
:10501000A00A0020A40A00209C0A002008B500BFB6
:10502000002000900E48006840F480400C49086061
:105030000846006800F48040009000BF00BF00BF39
:1050400000200090081F006840F08050091F086091
:105050000846006800F08050009000BF00BF08BD07
:105060004438024001460846002809DB00F01F03CF
:1050700001229A4043099B0003F1E023C3F8002179
:1050800000BF70472DE9F05F80460D4616460027A9
:105090000AF018FE074639462A46334601F0070053
:1050A000C0F1070ABAF1040F02D94FF0040A01E077
:1050B000C0F1070AD14600F1040ABAF1070F02D283
:1050C0004FF0000A01E0A0F1030AD4464FF0010AB4
:1050D0000AFA09FAAAF1010A0AEA020A0AFA0CFA19
:1050E0004FF0010B0BFA0CFBABF1010B0BEA030BBE
:1050F0004AEA0B04214640460AF0ECFDBDE8F09F69
:1051000000BF00F00702064B19684FF6FF03194075
:10511000044B0B4343EA0221014B196000BF704767
:105120000CED00E00000FA0570B504460D460CB920
:10513000012070BD5848006800F00700A84209D25D
:1051400055490D700846006800F00700A84201D0DC
:105150000120EEE7207800F0020002281DD120781F
:1051600000F00400042805D14C48006840F4E050E9
:105170004A490860207800F00800082805D147480F
:10518000006840F46040454908604448006820F0E9
:10519000F000A168084341490860207800F0010050
:1051A000A8B36068012807D13C4808380068C0F3FC
:1051B0004040B8B90120BCE76068022802D06068AE
:1051C000032807D1354808380068C0F3406048B963
:1051D0000120AEE7314808380068C0F3400008B944
:1051E0000120A6E72D48006820F00300616808430D
:1051F0002A490860FFF764FB064609E0FFF760FBF9
:10520000801B41F28831884202D9032091E707E0F0
:105210002248006800F00C006168B0EB810FEDD10E
:105220001D48006800F00700A84209D91A490D700E
:105230000846006800F00700A84201D0012078E786
:10524000207800F00400042807D11448006820F4F6
:10525000E050E168084311490860207800F0080038
:10526000082808D10D48006820F46040216940EA10
:10527000C1000A49086000F02FF808490968C1F325
:105280000311074A515CC840064908600648006897
:10529000FFF79EFE00204CE7003C02400838024029
:1052A0003B6D0108A40A00209C0A00200148006808
:1052B00070470000A40A002000B5FFF7F7FF04497B
:1052C0000968C1F38221034A515CC84000BD000057
:1052D000083802404B6D01082DE9F04700240025F5
:1052E0000026A1462548006800F00C0020B10428E3
:1052F00005D008283AD105E0DFF8849039E0DFF8DE
:10530000809036E01D48001F006800F03F041B48F5
:10531000001F006800F4800078B119481749091F80
:105320000968C1F38811A0FB0170014622460023E1
:105330003846FAF7E3FF05460EE011480F49091F0A
:105340000968C1F38811A0FB0170014622460023C1
:105350003846FAF7D3FF05460848001F0068C0F337
:105360000140401C4600B5FBF6F902E0DFF8109062
:1053700000BF00BF4846BDE8F08700000838024083
:105380000024F400F8B504460CB90120F8BD2078DB
:1053900000F00100002874D0F948006800F00C000B
:1053A00004280DD0F648006800F00C00082813D13E
:1053B000F348001F006800F48000B0F5800F0BD1A7
:1053C000EF4808380068C0F34040002859D06068B2
:1053D000002856D10120D9E700BF6068B0F5803FB2
:1053E00008D1E7480838006840F48030E4490839BB
:1053F00008601EE06068B0F5A02F0DD1E0480838C5
:10540000006840F48020DE490839086008460068DA
:1054100040F4803008600CE0D9480838006820F477
:105420008030D749083908600846006820F4802099
:10543000086000BF606890B1FFF742FA054606E0D9
:10544000FFF73EFA401B642801D903209EE7CC48B1
:1054500008380068C0F340400028F1D011E0FFF7A1
:105460002FFA054606E0FFF72BFA401B642801D906
:1054700003208BE7C24808380068C0F3404000288A
:10548000F1D1207800F0020002285FD1BC4800680A
:1054900000F00C0058B1BA48006800F00C00082871
:1054A0001CD1B748001F006800F48000B0B9B448B0
:1054B00008380068C0F3400020B1E068012801D03E
:1054C000012063E7AE480838006820F0F800216941
:1054D00040EAC100AA490839086037E0E06800B333
:1054E0000120A8490860FFF7EBF9054606E0FFF741
:1054F000E7F9401B022801D9032047E7A0480838F4
:105500000068C0F340000028F1D09D4808380068CA
:1055100020F0F800216940EAC10099490839086083
:1055200014E0002097490860FFF7CAF9054606E035
:10553000FFF7C6F9401B022801D9032026E790484F
:1055400008380068C0F340000028F1D1207800F04E
:10555000080008282CD16069A8B101208A49086098
:10556000FFF7AEF9054606E0FFF7AAF9401B02284F
:1055700001D903200AE782486C300068C0F340007C
:105580000028F1D014E000207F490860FFF798F967
:10559000054606E0FFF794F9401B022801D90320D5
:1055A000F4E677486C300068C0F340000028F1D181
:1055B000207800F00400042870D1002770483830AB
:1055C000006800F0805090B900BF002000906C4847
:1055D0003830006840F0805069493831086008462A
:1055E000006800F08050009000BF00BF01276748AE
:1055F000006800F48070B0B96448006840F48070BE
:1056000062490860FFF75CF9054606E0FFF758F9C4
:10561000401B022801D90320B8E65C48006800F46A
:1056200080700028F2D000BFA068012808D154483B
:105630006830006840F001005149683108601DE0A1
:10564000A06805280DD14E486830006840F004007D
:105650004B49683108600846006840F00100086066
:105660000CE047486830006820F001004449683188
:1056700008600846006820F00400086000BFA068C9
:10568000A8B1FFF71DF9054609E0FFF719F9401B1E
:1056900041F28831884202D9032077E626E0384873
:1056A00068300068C0F340000028EED013E0FFF738
:1056B00007F9054608E0FFF703F9401B41F288317E
:1056C000884201D9032061E62D4868300068C0F3A4
:1056D00040000028EFD1012F07D129483830006859
:1056E00020F0805026493831086000BFA0690028AA
:1056F00045D02348006800F00C0008285DD0A06960
:10570000022845D100201F490866FFF7D9F8054651
:1057100006E0FFF7D5F8401B022801D9032035E643
:10572000174808380068C0F340600028F1D1D4E978
:1057300007010843616A40EA81110122A06AC2EBB5
:10574000500041EA00412C20005D41EA00600C4914
:10575000091F086001200B490866FFF7B1F80546EC
:1057600006E0FFF7ADF8401B022801D903200DE643
:10577000034808380068C0F340600028F1D049E0D1
:105780000838024000004742800E47420070004047
:10579000002021490866FFF793F8054606E0FFF769
:1057A0008FF8401B022801D90320EFE51B48006851
:1057B000C0F340600028F2D12CE0A069012800D19C
:1057C000E4E51648001D0668A069012820D006F40B
:1057D0008001E06981421BD106F03F01206A8142CD
:1057E00016D147F6C0703040616AB0EB811F0FD10F
:1057F00006F440310122A06AC2EB5000B1EB004F29
:1058000006D106F070612C20005DB1EB006F01D075
:105810000120BBE50020B9E5000047420038024006
:1058200070B504462546681EB0F1807F01D3012083
:105830000FE0681E4FF0E02148610F214FF0FF306C
:105840000AF048FA00204FF0E02188610720086143
:10585000002070BD30B502460B4600BF92F83C00F8
:10586000012801D1022030BD012082F83C0000BF98
:10587000022082F83D00106844681068816824F0B6
:1058800070041868044310684460184D1068A842FA
:105890001BD01068B0F1804F17D0154D1068A8428A
:1058A00013D0144D1068A8420FD0134D1068A842B1
:1058B0000BD0124D1068A84207D0114D1068A842B5
:1058C00003D0104D1068A84205D121F0800158681E
:1058D000014310688160012082F83D0000BF002074
:1058E00082F83C0000BF00BFBDE70000000001409F
:1058F0000004004000080040000C0040000401408B
:1059000000400140001800402DE9F04104460D46DA
:1059100014B90120BDE8F08194F83D0028B90020B9
:1059200084F83C00204600F053F8022084F83D0043
:105930002068806844F20701884321688860211D3F
:10594000206809F089FF2068D0F8088020688669FF
:105950002068076A286840EA080840F20330864356
:10596000A969A86840EA0120064340F60C40864336
:105970004FF2F0008643E969E86840EA01200643F7
:1059800028690001296A40EA0130064327F022070E
:1059900027F088076969686840EA011007432068B2
:1059A000C0F808802068866120680762012084F8BA
:1059B000460084F83E0001213F200155012084F873
:1059C000420043200155012084F83D000020A1E75A
:1059D00010B586B00446142101A8FAF7E0FE1A4972
:1059E000206888422ED100BF002000901748006830
:1059F00040F00200154908600846006800F0020007
:105A0000009000BF00BF00BF002000900F4810387A
:105A1000006840F002000D4910390860084600682F
:105A200000F00200009000BF00BF30200190022073
:105A300002900020039004900220059001A90448E0
:105A4000FEF73EFE06B010BD0004004040380240A4
:105A5000000402402DE9F04304460D4694F83E60F0
:105A60003F20075D94F84280432010F804906DB900
:105A7000012E02D1B8F1010F02D00120BDE8F08360
:105A8000022084F83E0084F8420025E0042D0CD169
:105A9000012F02D1B9F1010F01D00120EEE702215F
:105AA0003F2001554320015516E0012E07D1012F5B
:105AB00005D1B8F1010F02D1B9F1010F01D00120D8
:105AC000DCE7022084F83E0002213F20015502203D
:105AD00084F842004320015515B1042D0CD105E096
